{
  "_format": "hh-sol-artifact-1",
  "contractName": "ZkMoku",
  "sourceName": "contracts/ZkMoku.sol",
  "abi": [
    {
      "inputs": [
        {
          "internalType": "string",
          "name": "name",
          "type": "string"
        },
        {
          "internalType": "string",
          "name": "symbol",
          "type": "string"
        }
      ],
      "stateMutability": "nonpayable",
      "type": "constructor"
    },
    {
      "anonymous": false,
      "inputs": [
        {
          "indexed": true,
          "internalType": "address",
          "name": "owner",
          "type": "address"
        },
        {
          "indexed": true,
          "internalType": "address",
          "name": "approved",
          "type": "address"
        },
        {
          "indexed": true,
          "internalType": "uint256",
          "name": "tokenId",
          "type": "uint256"
        }
      ],
      "name": "Approval",
      "type": "event"
    },
    {
      "anonymous": false,
      "inputs": [
        {
          "indexed": true,
          "internalType": "address",
          "name": "owner",
          "type": "address"
        },
        {
          "indexed": true,
          "internalType": "address",
          "name": "operator",
          "type": "address"
        },
        {
          "indexed": false,
          "internalType": "bool",
          "name": "approved",
          "type": "bool"
        }
      ],
      "name": "ApprovalForAll",
      "type": "event"
    },
    {
      "anonymous": false,
      "inputs": [
        {
          "indexed": true,
          "internalType": "address",
          "name": "member",
          "type": "address"
        },
        {
          "indexed": false,
          "internalType": "uint120",
          "name": "value",
          "type": "uint120"
        }
      ],
      "name": "RegiserGroup",
      "type": "event"
    },
    {
      "anonymous": false,
      "inputs": [
        {
          "indexed": true,
          "internalType": "address",
          "name": "from",
          "type": "address"
        },
        {
          "indexed": true,
          "internalType": "address",
          "name": "to",
          "type": "address"
        },
        {
          "indexed": true,
          "internalType": "uint256",
          "name": "tokenId",
          "type": "uint256"
        }
      ],
      "name": "Transfer",
      "type": "event"
    },
    {
      "inputs": [
        {
          "internalType": "address",
          "name": "to",
          "type": "address"
        },
        {
          "internalType": "uint256",
          "name": "tokenId",
          "type": "uint256"
        }
      ],
      "name": "approve",
      "outputs": [],
      "stateMutability": "nonpayable",
      "type": "function"
    },
    {
      "inputs": [
        {
          "internalType": "address",
          "name": "owner",
          "type": "address"
        }
      ],
      "name": "balanceOf",
      "outputs": [
        {
          "internalType": "uint256",
          "name": "",
          "type": "uint256"
        }
      ],
      "stateMutability": "view",
      "type": "function"
    },
    {
      "inputs": [
        {
          "internalType": "uint256",
          "name": "tokenId",
          "type": "uint256"
        }
      ],
      "name": "getApproved",
      "outputs": [
        {
          "internalType": "address",
          "name": "",
          "type": "address"
        }
      ],
      "stateMutability": "view",
      "type": "function"
    },
    {
      "inputs": [
        {
          "internalType": "uint256",
          "name": "id",
          "type": "uint256"
        }
      ],
      "name": "getGroup",
      "outputs": [
        {
          "components": [
            {
              "internalType": "string",
              "name": "h",
              "type": "string"
            },
            {
              "internalType": "string",
              "name": "kpPub",
              "type": "string"
            },
            {
              "internalType": "string",
              "name": "signature",
              "type": "string"
            }
          ],
          "internalType": "struct Group",
          "name": "",
          "type": "tuple"
        }
      ],
      "stateMutability": "view",
      "type": "function"
    },
    {
      "inputs": [],
      "name": "getGroups",
      "outputs": [
        {
          "components": [
            {
              "internalType": "string",
              "name": "h",
              "type": "string"
            },
            {
              "internalType": "string",
              "name": "kpPub",
              "type": "string"
            },
            {
              "internalType": "string",
              "name": "signature",
              "type": "string"
            }
          ],
          "internalType": "struct Group[]",
          "name": "",
          "type": "tuple[]"
        }
      ],
      "stateMutability": "view",
      "type": "function"
    },
    {
      "inputs": [
        {
          "internalType": "uint256",
          "name": "tokenId",
          "type": "uint256"
        }
      ],
      "name": "getMetadataJSON",
      "outputs": [
        {
          "internalType": "string",
          "name": "",
          "type": "string"
        }
      ],
      "stateMutability": "view",
      "type": "function"
    },
    {
      "inputs": [
        {
          "internalType": "address",
          "name": "owner",
          "type": "address"
        },
        {
          "internalType": "address",
          "name": "operator",
          "type": "address"
        }
      ],
      "name": "isApprovedForAll",
      "outputs": [
        {
          "internalType": "bool",
          "name": "",
          "type": "bool"
        }
      ],
      "stateMutability": "view",
      "type": "function"
    },
    {
      "inputs": [
        {
          "internalType": "uint256",
          "name": "groupId",
          "type": "uint256"
        },
        {
          "components": [
            {
              "internalType": "string",
              "name": "v",
              "type": "string"
            },
            {
              "internalType": "string",
              "name": "d",
              "type": "string"
            },
            {
              "internalType": "string",
              "name": "c",
              "type": "string"
            },
            {
              "internalType": "string",
              "name": "a",
              "type": "string"
            },
            {
              "internalType": "string",
              "name": "zSig",
              "type": "string"
            },
            {
              "internalType": "string",
              "name": "zv",
              "type": "string"
            },
            {
              "internalType": "string",
              "name": "cc",
              "type": "string"
            },
            {
              "internalType": "string",
              "name": "m",
              "type": "string"
            },
            {
              "internalType": "string",
              "name": "zr",
              "type": "string"
            }
          ],
          "internalType": "struct Proof",
          "name": "proof",
          "type": "tuple"
        },
        {
          "internalType": "address",
          "name": "holder",
          "type": "address"
        }
      ],
      "name": "mintProof",
      "outputs": [],
      "stateMutability": "nonpayable",
      "type": "function"
    },
    {
      "inputs": [],
      "name": "name",
      "outputs": [
        {
          "internalType": "string",
          "name": "",
          "type": "string"
        }
      ],
      "stateMutability": "view",
      "type": "function"
    },
    {
      "inputs": [
        {
          "internalType": "uint256",
          "name": "tokenId",
          "type": "uint256"
        }
      ],
      "name": "ownerOf",
      "outputs": [
        {
          "internalType": "address",
          "name": "",
          "type": "address"
        }
      ],
      "stateMutability": "view",
      "type": "function"
    },
    {
      "inputs": [
        {
          "internalType": "string",
          "name": "h",
          "type": "string"
        },
        {
          "internalType": "string",
          "name": "kpPub",
          "type": "string"
        },
        {
          "internalType": "string",
          "name": "signature",
          "type": "string"
        }
      ],
      "name": "regiserGroup",
      "outputs": [],
      "stateMutability": "nonpayable",
      "type": "function"
    },
    {
      "inputs": [
        {
          "internalType": "address",
          "name": "from",
          "type": "address"
        },
        {
          "internalType": "address",
          "name": "to",
          "type": "address"
        },
        {
          "internalType": "uint256",
          "name": "tokenId",
          "type": "uint256"
        }
      ],
      "name": "safeTransferFrom",
      "outputs": [],
      "stateMutability": "nonpayable",
      "type": "function"
    },
    {
      "inputs": [
        {
          "internalType": "address",
          "name": "from",
          "type": "address"
        },
        {
          "internalType": "address",
          "name": "to",
          "type": "address"
        },
        {
          "internalType": "uint256",
          "name": "tokenId",
          "type": "uint256"
        },
        {
          "internalType": "bytes",
          "name": "data",
          "type": "bytes"
        }
      ],
      "name": "safeTransferFrom",
      "outputs": [],
      "stateMutability": "nonpayable",
      "type": "function"
    },
    {
      "inputs": [
        {
          "internalType": "address",
          "name": "operator",
          "type": "address"
        },
        {
          "internalType": "bool",
          "name": "approved",
          "type": "bool"
        }
      ],
      "name": "setApprovalForAll",
      "outputs": [],
      "stateMutability": "nonpayable",
      "type": "function"
    },
    {
      "inputs": [
        {
          "internalType": "bytes4",
          "name": "interfaceId",
          "type": "bytes4"
        }
      ],
      "name": "supportsInterface",
      "outputs": [
        {
          "internalType": "bool",
          "name": "",
          "type": "bool"
        }
      ],
      "stateMutability": "view",
      "type": "function"
    },
    {
      "inputs": [],
      "name": "symbol",
      "outputs": [
        {
          "internalType": "string",
          "name": "",
          "type": "string"
        }
      ],
      "stateMutability": "view",
      "type": "function"
    },
    {
      "inputs": [
        {
          "internalType": "uint256",
          "name": "tokenId",
          "type": "uint256"
        }
      ],
      "name": "tokenURI",
      "outputs": [
        {
          "internalType": "string",
          "name": "",
          "type": "string"
        }
      ],
      "stateMutability": "view",
      "type": "function"
    },
    {
      "inputs": [
        {
          "internalType": "address",
          "name": "from",
          "type": "address"
        },
        {
          "internalType": "address",
          "name": "to",
          "type": "address"
        },
        {
          "internalType": "uint256",
          "name": "tokenId",
          "type": "uint256"
        }
      ],
      "name": "transferFrom",
      "outputs": [],
      "stateMutability": "nonpayable",
      "type": "function"
    }
  ],
  "bytecode": "0x60806040523480156200001157600080fd5b50604051620047bd380380620047bd833981810160405281019062000037919062000202565b818181600090816200004a9190620004d2565b5080600190816200005c9190620004d2565b50505060006009819055505050620005b9565b6000604051905090565b600080fd5b600080fd5b600080fd5b600080fd5b6000601f19601f8301169050919050565b7f4e487b7100000000000000000000000000000000000000000000000000000000600052604160045260246000fd5b620000d8826200008d565b810181811067ffffffffffffffff82111715620000fa57620000f96200009e565b5b80604052505050565b60006200010f6200006f565b90506200011d8282620000cd565b919050565b600067ffffffffffffffff82111562000140576200013f6200009e565b5b6200014b826200008d565b9050602081019050919050565b60005b83811015620001785780820151818401526020810190506200015b565b60008484015250505050565b60006200019b620001958462000122565b62000103565b905082815260208101848484011115620001ba57620001b962000088565b5b620001c784828562000158565b509392505050565b600082601f830112620001e757620001e662000083565b5b8151620001f984826020860162000184565b91505092915050565b600080604083850312156200021c576200021b62000079565b5b600083015167ffffffffffffffff8111156200023d576200023c6200007e565b5b6200024b85828601620001cf565b925050602083015167ffffffffffffffff8111156200026f576200026e6200007e565b5b6200027d85828601620001cf565b9150509250929050565b600081519050919050565b7f4e487b7100000000000000000000000000000000000000000000000000000000600052602260045260246000fd5b60006002820490506001821680620002da57607f821691505b602082108103620002f057620002ef62000292565b5b50919050565b60008190508160005260206000209050919050565b60006020601f8301049050919050565b600082821b905092915050565b6000600883026200035a7fffffffffffffffffffffffffffffffffffffffffffffffffffffffffffffffff826200031b565b6200036686836200031b565b95508019841693508086168417925050509392505050565b6000819050919050565b6000819050919050565b6000620003b3620003ad620003a7846200037e565b62000388565b6200037e565b9050919050565b6000819050919050565b620003cf8362000392565b620003e7620003de82620003ba565b84845462000328565b825550505050565b600090565b620003fe620003ef565b6200040b818484620003c4565b505050565b5b81811015620004335762000427600082620003f4565b60018101905062000411565b5050565b601f82111562000482576200044c81620002f6565b62000457846200030b565b8101602085101562000467578190505b6200047f62000476856200030b565b83018262000410565b50505b505050565b600082821c905092915050565b6000620004a76000198460080262000487565b1980831691505092915050565b6000620004c2838362000494565b9150826002028217905092915050565b620004dd8262000287565b67ffffffffffffffff811115620004f957620004f86200009e565b5b620005058254620002c1565b6200051282828562000437565b600060209050601f8311600181146200054a576000841562000535578287015190505b620005418582620004b4565b865550620005b1565b601f1984166200055a86620002f6565b60005b8281101562000584578489015182556001820191506020850194506020810190506200055d565b86831015620005a45784890151620005a0601f89168262000494565b8355505b6001600288020188555050505b505050505050565b6141f480620005c96000396000f3fe608060405234801561001057600080fd5b50600436106101165760003560e01c806395d89b41116100a2578063b88d4fde11610071578063b88d4fde146102ef578063c72b51761461030b578063c87b56dd14610329578063ceb6065414610359578063e985e9c51461038957610116565b806395d89b41146102695780639cc8495714610287578063a1b4ab26146102a3578063a22cb465146102d357610116565b806323b872dd116100e957806323b872dd146101b557806342842e0e146101d157806357a616f6146101ed5780636352211e1461020957806370a082311461023957610116565b806301ffc9a71461011b57806306fdde031461014b578063081812fc14610169578063095ea7b314610199575b600080fd5b6101356004803603810190610130919061210a565b6103b9565b6040516101429190612152565b60405180910390f35b61015361049b565b60405161016091906121fd565b60405180910390f35b610183600480360381019061017e9190612255565b61052d565b60405161019091906122c3565b60405180910390f35b6101b360048036038101906101ae919061230a565b610573565b005b6101cf60048036038101906101ca919061234a565b61068a565b005b6101eb60048036038101906101e6919061234a565b6106ea565b005b610207600480360381019061020291906124d2565b61070a565b005b610223600480360381019061021e9190612255565b610843565b60405161023091906122c3565b60405180910390f35b610253600480360381019061024e9190612579565b6108c9565b60405161026091906125b5565b60405180910390f35b610271610980565b60405161027e91906121fd565b60405180910390f35b6102a1600480360381019061029c91906127b6565b610a12565b005b6102bd60048036038101906102b89190612255565b610b3c565b6040516102ca91906121fd565b60405180910390f35b6102ed60048036038101906102e89190612851565b610c3b565b005b61030960048036038101906103049190612932565b610c51565b005b610313610cb3565b6040516103209190612b1f565b60405180910390f35b610343600480360381019061033e9190612255565b610f29565b60405161035091906121fd565b60405180910390f35b610373600480360381019061036e9190612255565b610fa2565b6040516103809190612b9f565b60405180910390f35b6103a3600480360381019061039e9190612bc1565b61120e565b6040516103b09190612152565b60405180910390f35b60007f80ac58cd000000000000000000000000000000000000000000000000000000007bffffffffffffffffffffffffffffffffffffffffffffffffffffffff1916827bffffffffffffffffffffffffffffffffffffffffffffffffffffffff1916148061048457507f5b5e139f000000000000000000000000000000000000000000000000000000007bffffffffffffffffffffffffffffffffffffffffffffffffffffffff1916827bffffffffffffffffffffffffffffffffffffffffffffffffffffffff1916145b806104945750610493826112a2565b5b9050919050565b6060600080546104aa90612c30565b80601f01602080910402602001604051908101604052809291908181526020018280546104d690612c30565b80156105235780601f106104f857610100808354040283529160200191610523565b820191906000526020600020905b81548152906001019060200180831161050657829003601f168201915b5050505050905090565b60006105388261130c565b6004600083815260200190815260200160002060009054906101000a900473ffffffffffffffffffffffffffffffffffffffff169050919050565b600061057e82610843565b90508073ffffffffffffffffffffffffffffffffffffffff168373ffffffffffffffffffffffffffffffffffffffff16036105ee576040517f08c379a00000000000000000000000000000000000000000000000000000000081526004016105e590612cd3565b60405180910390fd5b8073ffffffffffffffffffffffffffffffffffffffff1661060d611357565b73ffffffffffffffffffffffffffffffffffffffff16148061063c575061063b81610636611357565b61120e565b5b61067b576040517f08c379a000000000000000000000000000000000000000000000000000000000815260040161067290612d65565b60405180910390fd5b610685838361135f565b505050565b61069b610695611357565b82611418565b6106da576040517f08c379a00000000000000000000000000000000000000000000000000000000081526004016106d190612df7565b60405180910390fd5b6106e58383836114ad565b505050565b61070583838360405180602001604052806000815250610c51565b505050565b600060066000600954815260200190815260200160002090506000845103610767576040517f08c379a000000000000000000000000000000000000000000000000000000000815260040161075e90612e63565b60405180910390fd5b60008351036107ab576040517f08c379a00000000000000000000000000000000000000000000000000000000081526004016107a290612ecf565b60405180910390fd5b60008251036107ef576040517f08c379a00000000000000000000000000000000000000000000000000000000081526004016107e690612f3b565b60405180910390fd5b838160000190816108009190613107565b50828160010190816108129190613107565b50818160020190816108249190613107565b506009600081548092919061083890613208565b919050555050505050565b60008061084f836117a6565b9050600073ffffffffffffffffffffffffffffffffffffffff168173ffffffffffffffffffffffffffffffffffffffff16036108c0576040517f08c379a00000000000000000000000000000000000000000000000000000000081526004016108b79061329c565b60405180910390fd5b80915050919050565b60008073ffffffffffffffffffffffffffffffffffffffff168273ffffffffffffffffffffffffffffffffffffffff1603610939576040517f08c379a00000000000000000000000000000000000000000000000000000000081526004016109309061332e565b60405180910390fd5b600360008373ffffffffffffffffffffffffffffffffffffffff1673ffffffffffffffffffffffffffffffffffffffff168152602001908152602001600020549050919050565b60606001805461098f90612c30565b80601f01602080910402602001604051908101604052809291908181526020018280546109bb90612c30565b8015610a085780601f106109dd57610100808354040283529160200191610a08565b820191906000526020600020905b8154815290600101906020018083116109eb57829003601f168201915b5050505050905090565b610a1c600a6117e3565b8160076000610a2b600a6117f9565b81526020019081526020016000206000820151816000019081610a4e9190613107565b506020820151816001019081610a649190613107565b506040820151816002019081610a7a9190613107565b506060820151816003019081610a909190613107565b506080820151816004019081610aa69190613107565b5060a0820151816005019081610abc9190613107565b5060c0820151816006019081610ad29190613107565b5060e0820151816007019081610ae89190613107565b50610100820151816008019081610aff9190613107565b509050508260086000610b12600a6117f9565b815260200190815260200160002081905550610b3781610b32600a6117f9565b611807565b505050565b6060610b4782611825565b610b86576040517f08c379a0000000000000000000000000000000000000000000000000000000008152600401610b7d906133c0565b60405180910390fd5b600060076000848152602001908152602001600020905060006008600085815260200190815260200160002054905060006006600083815260200190815260200160002090506000610bd786611866565b8260000183600101866000018760010188600201896003018a6004018b6005018c6006018d6007018e600801604051602001610c1e9c9b9a999897969594939291906139ab565b604051602081830303815290604052905080945050505050919050565b610c4d610c46611357565b8383611934565b5050565b610c62610c5c611357565b83611418565b610ca1576040517f08c379a0000000000000000000000000000000000000000000000000000000008152600401610c9890612df7565b60405180910390fd5b610cad84848484611aa0565b50505050565b6060600060095467ffffffffffffffff811115610cd357610cd26123a7565b5b604051908082528060200260200182016040528015610d0c57816020015b610cf961207d565b815260200190600190039081610cf15790505b50905060005b600954811015610f215760066000828152602001908152602001600020604051806060016040529081600082018054610d4a90612c30565b80601f0160208091040260200160405190810160405280929190818152602001828054610d7690612c30565b8015610dc35780601f10610d9857610100808354040283529160200191610dc3565b820191906000526020600020905b815481529060010190602001808311610da657829003601f168201915b50505050508152602001600182018054610ddc90612c30565b80601f0160208091040260200160405190810160405280929190818152602001828054610e0890612c30565b8015610e555780601f10610e2a57610100808354040283529160200191610e55565b820191906000526020600020905b815481529060010190602001808311610e3857829003601f168201915b50505050508152602001600282018054610e6e90612c30565b80601f0160208091040260200160405190810160405280929190818152602001828054610e9a90612c30565b8015610ee75780601f10610ebc57610100808354040283529160200191610ee7565b820191906000526020600020905b815481529060010190602001808311610eca57829003601f168201915b505050505081525050828281518110610f0357610f02613b85565b5b60200260200101819052508080610f1990613208565b915050610d12565b508091505090565b6060610f3482611825565b610f73576040517f08c379a0000000000000000000000000000000000000000000000000000000008152600401610f6a90613c26565b60405180910390fd5b610f7c82610b3c565b604051602001610f8c9190613c92565b6040516020818303038152906040529050919050565b610faa61207d565b600060095403610fef576040517f08c379a0000000000000000000000000000000000000000000000000000000008152600401610fe690613d00565b60405180910390fd5b6009548210611033576040517f08c379a000000000000000000000000000000000000000000000000000000000815260040161102a90613d92565b60405180910390fd5b6006600083815260200190815260200160002060405180606001604052908160008201805461106190612c30565b80601f016020809104026020016040519081016040528092919081815260200182805461108d90612c30565b80156110da5780601f106110af576101008083540402835291602001916110da565b820191906000526020600020905b8154815290600101906020018083116110bd57829003601f168201915b505050505081526020016001820180546110f390612c30565b80601f016020809104026020016040519081016040528092919081815260200182805461111f90612c30565b801561116c5780601f106111415761010080835404028352916020019161116c565b820191906000526020600020905b81548152906001019060200180831161114f57829003601f168201915b5050505050815260200160028201805461118590612c30565b80601f01602080910402602001604051908101604052809291908181526020018280546111b190612c30565b80156111fe5780601f106111d3576101008083540402835291602001916111fe565b820191906000526020600020905b8154815290600101906020018083116111e157829003601f168201915b5050505050815250509050919050565b6000600560008473ffffffffffffffffffffffffffffffffffffffff1673ffffffffffffffffffffffffffffffffffffffff16815260200190815260200160002060008373ffffffffffffffffffffffffffffffffffffffff1673ffffffffffffffffffffffffffffffffffffffff16815260200190815260200160002060009054906101000a900460ff16905092915050565b60007f01ffc9a7000000000000000000000000000000000000000000000000000000007bffffffffffffffffffffffffffffffffffffffffffffffffffffffff1916827bffffffffffffffffffffffffffffffffffffffffffffffffffffffff1916149050919050565b61131581611825565b611354576040517f08c379a000000000000000000000000000000000000000000000000000000000815260040161134b9061329c565b60405180910390fd5b50565b600033905090565b816004600083815260200190815260200160002060006101000a81548173ffffffffffffffffffffffffffffffffffffffff021916908373ffffffffffffffffffffffffffffffffffffffff160217905550808273ffffffffffffffffffffffffffffffffffffffff166113d283610843565b73ffffffffffffffffffffffffffffffffffffffff167f8c5be1e5ebec7d5bd14f71427d1e84f3dd0314c0f7b2291e5b200ac8c7c3b92560405160405180910390a45050565b60008061142483610843565b90508073ffffffffffffffffffffffffffffffffffffffff168473ffffffffffffffffffffffffffffffffffffffff1614806114665750611465818561120e565b5b806114a457508373ffffffffffffffffffffffffffffffffffffffff1661148c8461052d565b73ffffffffffffffffffffffffffffffffffffffff16145b91505092915050565b8273ffffffffffffffffffffffffffffffffffffffff166114cd82610843565b73ffffffffffffffffffffffffffffffffffffffff1614611523576040517f08c379a000000000000000000000000000000000000000000000000000000000815260040161151a90613e24565b60405180910390fd5b600073ffffffffffffffffffffffffffffffffffffffff168273ffffffffffffffffffffffffffffffffffffffff1603611592576040517f08c379a000000000000000000000000000000000000000000000000000000000815260040161158990613eb6565b60405180910390fd5b61159f8383836001611afc565b8273ffffffffffffffffffffffffffffffffffffffff166115bf82610843565b73ffffffffffffffffffffffffffffffffffffffff1614611615576040517f08c379a000000000000000000000000000000000000000000000000000000000815260040161160c90613e24565b60405180910390fd5b6004600082815260200190815260200160002060006101000a81549073ffffffffffffffffffffffffffffffffffffffff02191690556001600360008573ffffffffffffffffffffffffffffffffffffffff1673ffffffffffffffffffffffffffffffffffffffff168152602001908152602001600020600082825403925050819055506001600360008473ffffffffffffffffffffffffffffffffffffffff1673ffffffffffffffffffffffffffffffffffffffff16815260200190815260200160002060008282540192505081905550816002600083815260200190815260200160002060006101000a81548173ffffffffffffffffffffffffffffffffffffffff021916908373ffffffffffffffffffffffffffffffffffffffff160217905550808273ffffffffffffffffffffffffffffffffffffffff168473ffffffffffffffffffffffffffffffffffffffff167fddf252ad1be2c89b69c2b068fc378daa952ba7f163c4a11628f55a4df523b3ef60405160405180910390a46117a18383836001611b02565b505050565b60006002600083815260200190815260200160002060009054906101000a900473ffffffffffffffffffffffffffffffffffffffff169050919050565b6001816000016000828254019250508190555050565b600081600001549050919050565b611821828260405180602001604052806000815250611b08565b5050565b60008073ffffffffffffffffffffffffffffffffffffffff16611847836117a6565b73ffffffffffffffffffffffffffffffffffffffff1614159050919050565b60606000600161187584611b63565b01905060008167ffffffffffffffff811115611894576118936123a7565b5b6040519080825280601f01601f1916602001820160405280156118c65781602001600182028036833780820191505090505b509050600082602001820190505b600115611929578080600190039150507f3031323334353637383961626364656600000000000000000000000000000000600a86061a8153600a858161191d5761191c613ed6565b5b049450600085036118d4575b819350505050919050565b8173ffffffffffffffffffffffffffffffffffffffff168373ffffffffffffffffffffffffffffffffffffffff16036119a2576040517f08c379a000000000000000000000000000000000000000000000000000000000815260040161199990613f51565b60405180910390fd5b80600560008573ffffffffffffffffffffffffffffffffffffffff1673ffffffffffffffffffffffffffffffffffffffff16815260200190815260200160002060008473ffffffffffffffffffffffffffffffffffffffff1673ffffffffffffffffffffffffffffffffffffffff16815260200190815260200160002060006101000a81548160ff0219169083151502179055508173ffffffffffffffffffffffffffffffffffffffff168373ffffffffffffffffffffffffffffffffffffffff167f17307eab39ab6107e8899845ad3d59bd9653f200f220920489ca2b5937696c3183604051611a939190612152565b60405180910390a3505050565b611aab8484846114ad565b611ab784848484611cb6565b611af6576040517f08c379a0000000000000000000000000000000000000000000000000000000008152600401611aed90613fe3565b60405180910390fd5b50505050565b50505050565b50505050565b611b128383611e3d565b611b1f6000848484611cb6565b611b5e576040517f08c379a0000000000000000000000000000000000000000000000000000000008152600401611b5590613fe3565b60405180910390fd5b505050565b600080600090507a184f03e93ff9f4daa797ed6e38ed64bf6a1f0100000000000000008310611bc1577a184f03e93ff9f4daa797ed6e38ed64bf6a1f0100000000000000008381611bb757611bb6613ed6565b5b0492506040810190505b6d04ee2d6d415b85acef81000000008310611bfe576d04ee2d6d415b85acef81000000008381611bf457611bf3613ed6565b5b0492506020810190505b662386f26fc100008310611c2d57662386f26fc100008381611c2357611c22613ed6565b5b0492506010810190505b6305f5e1008310611c56576305f5e1008381611c4c57611c4b613ed6565b5b0492506008810190505b6127108310611c7b576127108381611c7157611c70613ed6565b5b0492506004810190505b60648310611c9e5760648381611c9457611c93613ed6565b5b0492506002810190505b600a8310611cad576001810190505b80915050919050565b6000611cd78473ffffffffffffffffffffffffffffffffffffffff1661205a565b15611e30578373ffffffffffffffffffffffffffffffffffffffff1663150b7a02611d00611357565b8786866040518563ffffffff1660e01b8152600401611d229493929190614058565b6020604051808303816000875af1925050508015611d5e57506040513d601f19601f82011682018060405250810190611d5b91906140b9565b60015b611de0573d8060008114611d8e576040519150601f19603f3d011682016040523d82523d6000602084013e611d93565b606091505b506000815103611dd8576040517f08c379a0000000000000000000000000000000000000000000000000000000008152600401611dcf90613fe3565b60405180910390fd5b805181602001fd5b63150b7a0260e01b7bffffffffffffffffffffffffffffffffffffffffffffffffffffffff1916817bffffffffffffffffffffffffffffffffffffffffffffffffffffffff191614915050611e35565b600190505b949350505050565b600073ffffffffffffffffffffffffffffffffffffffff168273ffffffffffffffffffffffffffffffffffffffff1603611eac576040517f08c379a0000000000000000000000000000000000000000000000000000000008152600401611ea390614132565b60405180910390fd5b611eb581611825565b15611ef5576040517f08c379a0000000000000000000000000000000000000000000000000000000008152600401611eec9061419e565b60405180910390fd5b611f03600083836001611afc565b611f0c81611825565b15611f4c576040517f08c379a0000000000000000000000000000000000000000000000000000000008152600401611f439061419e565b60405180910390fd5b6001600360008473ffffffffffffffffffffffffffffffffffffffff1673ffffffffffffffffffffffffffffffffffffffff16815260200190815260200160002060008282540192505081905550816002600083815260200190815260200160002060006101000a81548173ffffffffffffffffffffffffffffffffffffffff021916908373ffffffffffffffffffffffffffffffffffffffff160217905550808273ffffffffffffffffffffffffffffffffffffffff16600073ffffffffffffffffffffffffffffffffffffffff167fddf252ad1be2c89b69c2b068fc378daa952ba7f163c4a11628f55a4df523b3ef60405160405180910390a4612056600083836001611b02565b5050565b6000808273ffffffffffffffffffffffffffffffffffffffff163b119050919050565b60405180606001604052806060815260200160608152602001606081525090565b6000604051905090565b600080fd5b600080fd5b60007fffffffff0000000000000000000000000000000000000000000000000000000082169050919050565b6120e7816120b2565b81146120f257600080fd5b50565b600081359050612104816120de565b92915050565b6000602082840312156121205761211f6120a8565b5b600061212e848285016120f5565b91505092915050565b60008115159050919050565b61214c81612137565b82525050565b60006020820190506121676000830184612143565b92915050565b600081519050919050565b600082825260208201905092915050565b60005b838110156121a757808201518184015260208101905061218c565b60008484015250505050565b6000601f19601f8301169050919050565b60006121cf8261216d565b6121d98185612178565b93506121e9818560208601612189565b6121f2816121b3565b840191505092915050565b6000602082019050818103600083015261221781846121c4565b905092915050565b6000819050919050565b6122328161221f565b811461223d57600080fd5b50565b60008135905061224f81612229565b92915050565b60006020828403121561226b5761226a6120a8565b5b600061227984828501612240565b91505092915050565b600073ffffffffffffffffffffffffffffffffffffffff82169050919050565b60006122ad82612282565b9050919050565b6122bd816122a2565b82525050565b60006020820190506122d860008301846122b4565b92915050565b6122e7816122a2565b81146122f257600080fd5b50565b600081359050612304816122de565b92915050565b60008060408385031215612321576123206120a8565b5b600061232f858286016122f5565b925050602061234085828601612240565b9150509250929050565b600080600060608486031215612363576123626120a8565b5b6000612371868287016122f5565b9350506020612382868287016122f5565b925050604061239386828701612240565b9150509250925092565b600080fd5b600080fd5b7f4e487b7100000000000000000000000000000000000000000000000000000000600052604160045260246000fd5b6123df826121b3565b810181811067ffffffffffffffff821117156123fe576123fd6123a7565b5b80604052505050565b600061241161209e565b905061241d82826123d6565b919050565b600067ffffffffffffffff82111561243d5761243c6123a7565b5b612446826121b3565b9050602081019050919050565b82818337600083830152505050565b600061247561247084612422565b612407565b905082815260208101848484011115612491576124906123a2565b5b61249c848285612453565b509392505050565b600082601f8301126124b9576124b861239d565b5b81356124c9848260208601612462565b91505092915050565b6000806000606084860312156124eb576124ea6120a8565b5b600084013567ffffffffffffffff811115612509576125086120ad565b5b612515868287016124a4565b935050602084013567ffffffffffffffff811115612536576125356120ad565b5b612542868287016124a4565b925050604084013567ffffffffffffffff811115612563576125626120ad565b5b61256f868287016124a4565b9150509250925092565b60006020828403121561258f5761258e6120a8565b5b600061259d848285016122f5565b91505092915050565b6125af8161221f565b82525050565b60006020820190506125ca60008301846125a6565b92915050565b600080fd5b600080fd5b600061012082840312156125f1576125f06125d0565b5b6125fc610120612407565b9050600082013567ffffffffffffffff81111561261c5761261b6125d5565b5b612628848285016124a4565b600083015250602082013567ffffffffffffffff81111561264c5761264b6125d5565b5b612658848285016124a4565b602083015250604082013567ffffffffffffffff81111561267c5761267b6125d5565b5b612688848285016124a4565b604083015250606082013567ffffffffffffffff8111156126ac576126ab6125d5565b5b6126b8848285016124a4565b606083015250608082013567ffffffffffffffff8111156126dc576126db6125d5565b5b6126e8848285016124a4565b60808301525060a082013567ffffffffffffffff81111561270c5761270b6125d5565b5b612718848285016124a4565b60a08301525060c082013567ffffffffffffffff81111561273c5761273b6125d5565b5b612748848285016124a4565b60c08301525060e082013567ffffffffffffffff81111561276c5761276b6125d5565b5b612778848285016124a4565b60e08301525061010082013567ffffffffffffffff81111561279d5761279c6125d5565b5b6127a9848285016124a4565b6101008301525092915050565b6000806000606084860312156127cf576127ce6120a8565b5b60006127dd86828701612240565b935050602084013567ffffffffffffffff8111156127fe576127fd6120ad565b5b61280a868287016125da565b925050604061281b868287016122f5565b9150509250925092565b61282e81612137565b811461283957600080fd5b50565b60008135905061284b81612825565b92915050565b60008060408385031215612868576128676120a8565b5b6000612876858286016122f5565b92505060206128878582860161283c565b9150509250929050565b600067ffffffffffffffff8211156128ac576128ab6123a7565b5b6128b5826121b3565b9050602081019050919050565b60006128d56128d084612891565b612407565b9050828152602081018484840111156128f1576128f06123a2565b5b6128fc848285612453565b509392505050565b600082601f8301126129195761291861239d565b5b81356129298482602086016128c2565b91505092915050565b6000806000806080858703121561294c5761294b6120a8565b5b600061295a878288016122f5565b945050602061296b878288016122f5565b935050604061297c87828801612240565b925050606085013567ffffffffffffffff81111561299d5761299c6120ad565b5b6129a987828801612904565b91505092959194509250565b600081519050919050565b600082825260208201905092915050565b6000819050602082019050919050565b600082825260208201905092915050565b60006129fd8261216d565b612a0781856129e1565b9350612a17818560208601612189565b612a20816121b3565b840191505092915050565b60006060830160008301518482036000860152612a4882826129f2565b91505060208301518482036020860152612a6282826129f2565b91505060408301518482036040860152612a7c82826129f2565b9150508091505092915050565b6000612a958383612a2b565b905092915050565b6000602082019050919050565b6000612ab5826129b5565b612abf81856129c0565b935083602082028501612ad1856129d1565b8060005b85811015612b0d5784840389528151612aee8582612a89565b9450612af983612a9d565b925060208a01995050600181019050612ad5565b50829750879550505050505092915050565b60006020820190508181036000830152612b398184612aaa565b905092915050565b60006060830160008301518482036000860152612b5e82826129f2565b91505060208301518482036020860152612b7882826129f2565b91505060408301518482036040860152612b9282826129f2565b9150508091505092915050565b60006020820190508181036000830152612bb98184612b41565b905092915050565b60008060408385031215612bd857612bd76120a8565b5b6000612be6858286016122f5565b9250506020612bf7858286016122f5565b9150509250929050565b7f4e487b7100000000000000000000000000000000000000000000000000000000600052602260045260246000fd5b60006002820490506001821680612c4857607f821691505b602082108103612c5b57612c5a612c01565b5b50919050565b7f4552433732313a20617070726f76616c20746f2063757272656e74206f776e6560008201527f7200000000000000000000000000000000000000000000000000000000000000602082015250565b6000612cbd602183612178565b9150612cc882612c61565b604082019050919050565b60006020820190508181036000830152612cec81612cb0565b9050919050565b7f4552433732313a20617070726f76652063616c6c6572206973206e6f7420746f60008201527f6b656e206f776e6572206f7220617070726f76656420666f7220616c6c000000602082015250565b6000612d4f603d83612178565b9150612d5a82612cf3565b604082019050919050565b60006020820190508181036000830152612d7e81612d42565b9050919050565b7f4552433732313a2063616c6c6572206973206e6f7420746f6b656e206f776e6560008201527f72206f7220617070726f76656400000000000000000000000000000000000000602082015250565b6000612de1602d83612178565b9150612dec82612d85565b604082019050919050565b60006020820190508181036000830152612e1081612dd4565b9050919050565b7f68206d757374206e6f7420626520656d70747900000000000000000000000000600082015250565b6000612e4d601383612178565b9150612e5882612e17565b602082019050919050565b60006020820190508181036000830152612e7c81612e40565b9050919050565b7f6b70507562206d757374206e6f7420626520656d707479000000000000000000600082015250565b6000612eb9601783612178565b9150612ec482612e83565b602082019050919050565b60006020820190508181036000830152612ee881612eac565b9050919050565b7f7369676e6174757265206d757374206e6f7420626520656d7074790000000000600082015250565b6000612f25601b83612178565b9150612f3082612eef565b602082019050919050565b60006020820190508181036000830152612f5481612f18565b9050919050565b60008190508160005260206000209050919050565b60006020601f8301049050919050565b600082821b905092915050565b600060088302612fbd7fffffffffffffffffffffffffffffffffffffffffffffffffffffffffffffffff82612f80565b612fc78683612f80565b95508019841693508086168417925050509392505050565b6000819050919050565b6000613004612fff612ffa8461221f565b612fdf565b61221f565b9050919050565b6000819050919050565b61301e83612fe9565b61303261302a8261300b565b848454612f8d565b825550505050565b600090565b61304761303a565b613052818484613015565b505050565b5b818110156130765761306b60008261303f565b600181019050613058565b5050565b601f8211156130bb5761308c81612f5b565b61309584612f70565b810160208510156130a4578190505b6130b86130b085612f70565b830182613057565b50505b505050565b600082821c905092915050565b60006130de600019846008026130c0565b1980831691505092915050565b60006130f783836130cd565b9150826002028217905092915050565b6131108261216d565b67ffffffffffffffff811115613129576131286123a7565b5b6131338254612c30565b61313e82828561307a565b600060209050601f831160018114613171576000841561315f578287015190505b61316985826130eb565b8655506131d1565b601f19841661317f86612f5b565b60005b828110156131a757848901518255600182019150602085019450602081019050613182565b868310156131c457848901516131c0601f8916826130cd565b8355505b6001600288020188555050505b505050505050565b7f4e487b7100000000000000000000000000000000000000000000000000000000600052601160045260246000fd5b60006132138261221f565b91507fffffffffffffffffffffffffffffffffffffffffffffffffffffffffffffffff8203613245576132446131d9565b5b600182019050919050565b7f4552433732313a20696e76616c696420746f6b656e2049440000000000000000600082015250565b6000613286601883612178565b915061329182613250565b602082019050919050565b600060208201905081810360008301526132b581613279565b9050919050565b7f4552433732313a2061646472657373207a65726f206973206e6f74206120766160008201527f6c6964206f776e65720000000000000000000000000000000000000000000000602082015250565b6000613318602983612178565b9150613323826132bc565b604082019050919050565b600060208201905081810360008301526133478161330b565b9050919050565b7f4552433732314d657461646174613a204d65746164617461207175657279206660008201527f6f72206e6f6e6578697374656e7420746f6b656e000000000000000000000000602082015250565b60006133aa603483612178565b91506133b58261334e565b604082019050919050565b600060208201905081810360008301526133d98161339d565b9050919050565b600081905092915050565b7f7b00000000000000000000000000000000000000000000000000000000000000600082015250565b60006134216001836133e0565b915061342c826133eb565b600182019050919050565b7f22746f6b656e4964223a20220000000000000000000000000000000000000000600082015250565b600061346d600c836133e0565b915061347882613437565b600c82019050919050565b600061348e8261216d565b61349881856133e0565b93506134a8818560208601612189565b80840191505092915050565b7f222c000000000000000000000000000000000000000000000000000000000000600082015250565b60006134ea6002836133e0565b91506134f5826134b4565b600282019050919050565b7f2270726f6f66223a207b00000000000000000000000000000000000000000000600082015250565b6000613536600a836133e0565b915061354182613500565b600a82019050919050565b7f2268223a20220000000000000000000000000000000000000000000000000000600082015250565b60006135826006836133e0565b915061358d8261354c565b600682019050919050565b600081546135a581612c30565b6135af81866133e0565b945060018216600081146135ca57600181146135df57613612565b60ff1983168652811515820286019350613612565b6135e885612f5b565b60005b8381101561360a578154818901526001820191506020810190506135eb565b838801955050505b50505092915050565b7f226b70507562223a202200000000000000000000000000000000000000000000600082015250565b6000613651600a836133e0565b915061365c8261361b565b600a82019050919050565b7f2276223a20220000000000000000000000000000000000000000000000000000600082015250565b600061369d6006836133e0565b91506136a882613667565b600682019050919050565b7f2264223a20220000000000000000000000000000000000000000000000000000600082015250565b60006136e96006836133e0565b91506136f4826136b3565b600682019050919050565b7f2263223a20220000000000000000000000000000000000000000000000000000600082015250565b60006137356006836133e0565b9150613740826136ff565b600682019050919050565b7f2261223a20220000000000000000000000000000000000000000000000000000600082015250565b60006137816006836133e0565b915061378c8261374b565b600682019050919050565b7f227a536967223a20220000000000000000000000000000000000000000000000600082015250565b60006137cd6009836133e0565b91506137d882613797565b600982019050919050565b7f227a76223a202200000000000000000000000000000000000000000000000000600082015250565b60006138196007836133e0565b9150613824826137e3565b600782019050919050565b7f226363223a202200000000000000000000000000000000000000000000000000600082015250565b60006138656007836133e0565b91506138708261382f565b600782019050919050565b7f226d223a20220000000000000000000000000000000000000000000000000000600082015250565b60006138b16006836133e0565b91506138bc8261387b565b600682019050919050565b7f227a72223a202200000000000000000000000000000000000000000000000000600082015250565b60006138fd6007836133e0565b9150613908826138c7565b600782019050919050565b7f2200000000000000000000000000000000000000000000000000000000000000600082015250565b60006139496001836133e0565b915061395482613913565b600182019050919050565b7f7d00000000000000000000000000000000000000000000000000000000000000600082015250565b60006139956001836133e0565b91506139a08261395f565b600182019050919050565b60006139b682613414565b91506139c182613460565b91506139cd828f613483565b91506139d8826134dd565b91506139e382613529565b91506139ee82613575565b91506139fa828e613598565b9150613a05826134dd565b9150613a1082613644565b9150613a1c828d613598565b9150613a27826134dd565b9150613a3282613690565b9150613a3e828c613598565b9150613a49826134dd565b9150613a54826136dc565b9150613a60828b613598565b9150613a6b826134dd565b9150613a7682613728565b9150613a82828a613598565b9150613a8d826134dd565b9150613a9882613774565b9150613aa48289613598565b9150613aaf826134dd565b9150613aba826137c0565b9150613ac68288613598565b9150613ad1826134dd565b9150613adc8261380c565b9150613ae88287613598565b9150613af3826134dd565b9150613afe82613858565b9150613b0a8286613598565b9150613b15826134dd565b9150613b20826138a4565b9150613b2c8285613598565b9150613b37826134dd565b9150613b42826138f0565b9150613b4e8284613598565b9150613b598261393c565b9150613b6482613988565b9150613b6f82613988565b91508190509d9c50505050505050505050505050565b7f4e487b7100000000000000000000000000000000000000000000000000000000600052603260045260246000fd5b7f4552433732314d657461646174613a2055524920717565727920666f72206e6f60008201527f6e6578697374656e7420746f6b656e0000000000000000000000000000000000602082015250565b6000613c10602f83612178565b9150613c1b82613bb4565b604082019050919050565b60006020820190508181036000830152613c3f81613c03565b9050919050565b7f646174613a6170706c69636174696f6e2f6a736f6e3b6261736536342c000000600082015250565b6000613c7c601d836133e0565b9150613c8782613c46565b601d82019050919050565b6000613c9d82613c6f565b9150613ca98284613483565b915081905092915050565b7f47726f757020646f6573206e6f74206578697374000000000000000000000000600082015250565b6000613cea601483612178565b9150613cf582613cb4565b602082019050919050565b60006020820190508181036000830152613d1981613cdd565b9050919050565b7f47726f757020646f6573206e6f74206578697374206173736f6369617465642060008201527f7769746820696400000000000000000000000000000000000000000000000000602082015250565b6000613d7c602783612178565b9150613d8782613d20565b604082019050919050565b60006020820190508181036000830152613dab81613d6f565b9050919050565b7f4552433732313a207472616e736665722066726f6d20696e636f72726563742060008201527f6f776e6572000000000000000000000000000000000000000000000000000000602082015250565b6000613e0e602583612178565b9150613e1982613db2565b604082019050919050565b60006020820190508181036000830152613e3d81613e01565b9050919050565b7f4552433732313a207472616e7366657220746f20746865207a65726f2061646460008201527f7265737300000000000000000000000000000000000000000000000000000000602082015250565b6000613ea0602483612178565b9150613eab82613e44565b604082019050919050565b60006020820190508181036000830152613ecf81613e93565b9050919050565b7f4e487b7100000000000000000000000000000000000000000000000000000000600052601260045260246000fd5b7f4552433732313a20617070726f766520746f2063616c6c657200000000000000600082015250565b6000613f3b601983612178565b9150613f4682613f05565b602082019050919050565b60006020820190508181036000830152613f6a81613f2e565b9050919050565b7f4552433732313a207472616e7366657220746f206e6f6e20455243373231526560008201527f63656976657220696d706c656d656e7465720000000000000000000000000000602082015250565b6000613fcd603283612178565b9150613fd882613f71565b604082019050919050565b60006020820190508181036000830152613ffc81613fc0565b9050919050565b600081519050919050565b600082825260208201905092915050565b600061402a82614003565b614034818561400e565b9350614044818560208601612189565b61404d816121b3565b840191505092915050565b600060808201905061406d60008301876122b4565b61407a60208301866122b4565b61408760408301856125a6565b8181036060830152614099818461401f565b905095945050505050565b6000815190506140b3816120de565b92915050565b6000602082840312156140cf576140ce6120a8565b5b60006140dd848285016140a4565b91505092915050565b7f4552433732313a206d696e7420746f20746865207a65726f2061646472657373600082015250565b600061411c602083612178565b9150614127826140e6565b602082019050919050565b6000602082019050818103600083015261414b8161410f565b9050919050565b7f4552433732313a20746f6b656e20616c7265616479206d696e74656400000000600082015250565b6000614188601c83612178565b915061419382614152565b602082019050919050565b600060208201905081810360008301526141b78161417b565b905091905056fea2646970667358221220931731b07f6e0c80ac1b6ec9347998e0e3c34772848be36f4f2cf301eeea0e4864736f6c63430008120033",
  "linkReferences": {},
  "deployedLinkReferences": {}
}