{
  "_format": "hh-sol-artifact-1",
  "contractName": "ZkMoku",
  "sourceName": "contracts/ZkMoku.sol",
  "abi": [
    {
      "inputs": [
        {
          "internalType": "string",
          "name": "name",
          "type": "string"
        },
        {
          "internalType": "string",
          "name": "symbol",
          "type": "string"
        }
      ],
      "stateMutability": "nonpayable",
      "type": "constructor"
    },
    {
      "anonymous": false,
      "inputs": [
        {
          "indexed": true,
          "internalType": "address",
          "name": "owner",
          "type": "address"
        },
        {
          "indexed": true,
          "internalType": "address",
          "name": "approved",
          "type": "address"
        },
        {
          "indexed": true,
          "internalType": "uint256",
          "name": "tokenId",
          "type": "uint256"
        }
      ],
      "name": "Approval",
      "type": "event"
    },
    {
      "anonymous": false,
      "inputs": [
        {
          "indexed": true,
          "internalType": "address",
          "name": "owner",
          "type": "address"
        },
        {
          "indexed": true,
          "internalType": "address",
          "name": "operator",
          "type": "address"
        },
        {
          "indexed": false,
          "internalType": "bool",
          "name": "approved",
          "type": "bool"
        }
      ],
      "name": "ApprovalForAll",
      "type": "event"
    },
    {
      "anonymous": false,
      "inputs": [
        {
          "indexed": true,
          "internalType": "address",
          "name": "member",
          "type": "address"
        },
        {
          "indexed": false,
          "internalType": "uint120",
          "name": "value",
          "type": "uint120"
        }
      ],
      "name": "RegiserGroup",
      "type": "event"
    },
    {
      "anonymous": false,
      "inputs": [
        {
          "indexed": true,
          "internalType": "address",
          "name": "from",
          "type": "address"
        },
        {
          "indexed": true,
          "internalType": "address",
          "name": "to",
          "type": "address"
        },
        {
          "indexed": true,
          "internalType": "uint256",
          "name": "tokenId",
          "type": "uint256"
        }
      ],
      "name": "Transfer",
      "type": "event"
    },
    {
      "inputs": [
        {
          "internalType": "address",
          "name": "to",
          "type": "address"
        },
        {
          "internalType": "uint256",
          "name": "tokenId",
          "type": "uint256"
        }
      ],
      "name": "approve",
      "outputs": [],
      "stateMutability": "nonpayable",
      "type": "function"
    },
    {
      "inputs": [
        {
          "internalType": "address",
          "name": "owner",
          "type": "address"
        }
      ],
      "name": "balanceOf",
      "outputs": [
        {
          "internalType": "uint256",
          "name": "",
          "type": "uint256"
        }
      ],
      "stateMutability": "view",
      "type": "function"
    },
    {
      "inputs": [
        {
          "internalType": "uint256",
          "name": "tokenId",
          "type": "uint256"
        }
      ],
      "name": "getApproved",
      "outputs": [
        {
          "internalType": "address",
          "name": "",
          "type": "address"
        }
      ],
      "stateMutability": "view",
      "type": "function"
    },
    {
      "inputs": [
        {
          "internalType": "uint256",
          "name": "id",
          "type": "uint256"
        }
      ],
      "name": "getGroup",
      "outputs": [
        {
          "components": [
            {
              "internalType": "uint256",
              "name": "id",
              "type": "uint256"
            },
            {
              "internalType": "string",
              "name": "name",
              "type": "string"
            },
            {
              "internalType": "string",
              "name": "h",
              "type": "string"
            },
            {
              "internalType": "string",
              "name": "kpPub",
              "type": "string"
            },
            {
              "internalType": "string",
              "name": "signature",
              "type": "string"
            }
          ],
          "internalType": "struct Group",
          "name": "",
          "type": "tuple"
        }
      ],
      "stateMutability": "view",
      "type": "function"
    },
    {
      "inputs": [],
      "name": "getGroups",
      "outputs": [
        {
          "components": [
            {
              "internalType": "uint256",
              "name": "id",
              "type": "uint256"
            },
            {
              "internalType": "string",
              "name": "name",
              "type": "string"
            },
            {
              "internalType": "string",
              "name": "h",
              "type": "string"
            },
            {
              "internalType": "string",
              "name": "kpPub",
              "type": "string"
            },
            {
              "internalType": "string",
              "name": "signature",
              "type": "string"
            }
          ],
          "internalType": "struct Group[]",
          "name": "",
          "type": "tuple[]"
        }
      ],
      "stateMutability": "view",
      "type": "function"
    },
    {
      "inputs": [
        {
          "internalType": "uint256",
          "name": "tokenId",
          "type": "uint256"
        }
      ],
      "name": "getMetadataJSON",
      "outputs": [
        {
          "internalType": "string",
          "name": "",
          "type": "string"
        }
      ],
      "stateMutability": "view",
      "type": "function"
    },
    {
      "inputs": [
        {
          "internalType": "uint256",
          "name": "tokenId",
          "type": "uint256"
        }
      ],
      "name": "getProofJSON",
      "outputs": [
        {
          "internalType": "string",
          "name": "",
          "type": "string"
        }
      ],
      "stateMutability": "view",
      "type": "function"
    },
    {
      "inputs": [
        {
          "internalType": "address",
          "name": "holder",
          "type": "address"
        }
      ],
      "name": "getTokenUrls",
      "outputs": [
        {
          "internalType": "uint256[]",
          "name": "",
          "type": "uint256[]"
        }
      ],
      "stateMutability": "view",
      "type": "function"
    },
    {
      "inputs": [
        {
          "internalType": "address",
          "name": "owner",
          "type": "address"
        },
        {
          "internalType": "address",
          "name": "operator",
          "type": "address"
        }
      ],
      "name": "isApprovedForAll",
      "outputs": [
        {
          "internalType": "bool",
          "name": "",
          "type": "bool"
        }
      ],
      "stateMutability": "view",
      "type": "function"
    },
    {
      "inputs": [
        {
          "internalType": "uint256",
          "name": "groupId",
          "type": "uint256"
        },
        {
          "components": [
            {
              "internalType": "string",
              "name": "v",
              "type": "string"
            },
            {
              "internalType": "string",
              "name": "d",
              "type": "string"
            },
            {
              "internalType": "string",
              "name": "c",
              "type": "string"
            },
            {
              "internalType": "string",
              "name": "a",
              "type": "string"
            },
            {
              "internalType": "string",
              "name": "zSig",
              "type": "string"
            },
            {
              "internalType": "string",
              "name": "zv",
              "type": "string"
            },
            {
              "internalType": "string",
              "name": "cc",
              "type": "string"
            },
            {
              "internalType": "string",
              "name": "m",
              "type": "string"
            },
            {
              "internalType": "string",
              "name": "zr",
              "type": "string"
            }
          ],
          "internalType": "struct Proof",
          "name": "proof",
          "type": "tuple"
        },
        {
          "internalType": "address",
          "name": "holder",
          "type": "address"
        }
      ],
      "name": "mintProof",
      "outputs": [],
      "stateMutability": "nonpayable",
      "type": "function"
    },
    {
      "inputs": [],
      "name": "name",
      "outputs": [
        {
          "internalType": "string",
          "name": "",
          "type": "string"
        }
      ],
      "stateMutability": "view",
      "type": "function"
    },
    {
      "inputs": [
        {
          "internalType": "uint256",
          "name": "tokenId",
          "type": "uint256"
        }
      ],
      "name": "ownerOf",
      "outputs": [
        {
          "internalType": "address",
          "name": "",
          "type": "address"
        }
      ],
      "stateMutability": "view",
      "type": "function"
    },
    {
      "inputs": [
        {
          "internalType": "string",
          "name": "name",
          "type": "string"
        },
        {
          "internalType": "string",
          "name": "h",
          "type": "string"
        },
        {
          "internalType": "string",
          "name": "kpPub",
          "type": "string"
        },
        {
          "internalType": "string",
          "name": "signature",
          "type": "string"
        }
      ],
      "name": "regiserGroup",
      "outputs": [],
      "stateMutability": "nonpayable",
      "type": "function"
    },
    {
      "inputs": [
        {
          "internalType": "address",
          "name": "from",
          "type": "address"
        },
        {
          "internalType": "address",
          "name": "to",
          "type": "address"
        },
        {
          "internalType": "uint256",
          "name": "tokenId",
          "type": "uint256"
        }
      ],
      "name": "safeTransferFrom",
      "outputs": [],
      "stateMutability": "nonpayable",
      "type": "function"
    },
    {
      "inputs": [
        {
          "internalType": "address",
          "name": "from",
          "type": "address"
        },
        {
          "internalType": "address",
          "name": "to",
          "type": "address"
        },
        {
          "internalType": "uint256",
          "name": "tokenId",
          "type": "uint256"
        },
        {
          "internalType": "bytes",
          "name": "data",
          "type": "bytes"
        }
      ],
      "name": "safeTransferFrom",
      "outputs": [],
      "stateMutability": "nonpayable",
      "type": "function"
    },
    {
      "inputs": [
        {
          "internalType": "address",
          "name": "operator",
          "type": "address"
        },
        {
          "internalType": "bool",
          "name": "approved",
          "type": "bool"
        }
      ],
      "name": "setApprovalForAll",
      "outputs": [],
      "stateMutability": "nonpayable",
      "type": "function"
    },
    {
      "inputs": [
        {
          "internalType": "bytes4",
          "name": "interfaceId",
          "type": "bytes4"
        }
      ],
      "name": "supportsInterface",
      "outputs": [
        {
          "internalType": "bool",
          "name": "",
          "type": "bool"
        }
      ],
      "stateMutability": "view",
      "type": "function"
    },
    {
      "inputs": [],
      "name": "symbol",
      "outputs": [
        {
          "internalType": "string",
          "name": "",
          "type": "string"
        }
      ],
      "stateMutability": "view",
      "type": "function"
    },
    {
      "inputs": [
        {
          "internalType": "uint256",
          "name": "tokenId",
          "type": "uint256"
        }
      ],
      "name": "tokenURI",
      "outputs": [
        {
          "internalType": "string",
          "name": "",
          "type": "string"
        }
      ],
      "stateMutability": "view",
      "type": "function"
    },
    {
      "inputs": [
        {
          "internalType": "address",
          "name": "from",
          "type": "address"
        },
        {
          "internalType": "address",
          "name": "to",
          "type": "address"
        },
        {
          "internalType": "uint256",
          "name": "tokenId",
          "type": "uint256"
        }
      ],
      "name": "transferFrom",
      "outputs": [],
      "stateMutability": "nonpayable",
      "type": "function"
    }
  ],
  "bytecode": "0x60806040523480156200001157600080fd5b506040516200533b3803806200533b833981810160405281019062000037919062000202565b818181600090816200004a9190620004d2565b5080600190816200005c9190620004d2565b5050506000600a819055505050620005b9565b6000604051905090565b600080fd5b600080fd5b600080fd5b600080fd5b6000601f19601f8301169050919050565b7f4e487b7100000000000000000000000000000000000000000000000000000000600052604160045260246000fd5b620000d8826200008d565b810181811067ffffffffffffffff82111715620000fa57620000f96200009e565b5b80604052505050565b60006200010f6200006f565b90506200011d8282620000cd565b919050565b600067ffffffffffffffff82111562000140576200013f6200009e565b5b6200014b826200008d565b9050602081019050919050565b60005b83811015620001785780820151818401526020810190506200015b565b60008484015250505050565b60006200019b620001958462000122565b62000103565b905082815260208101848484011115620001ba57620001b962000088565b5b620001c784828562000158565b509392505050565b600082601f830112620001e757620001e662000083565b5b8151620001f984826020860162000184565b91505092915050565b600080604083850312156200021c576200021b62000079565b5b600083015167ffffffffffffffff8111156200023d576200023c6200007e565b5b6200024b85828601620001cf565b925050602083015167ffffffffffffffff8111156200026f576200026e6200007e565b5b6200027d85828601620001cf565b9150509250929050565b600081519050919050565b7f4e487b7100000000000000000000000000000000000000000000000000000000600052602260045260246000fd5b60006002820490506001821680620002da57607f821691505b602082108103620002f057620002ef62000292565b5b50919050565b60008190508160005260206000209050919050565b60006020601f8301049050919050565b600082821b905092915050565b6000600883026200035a7fffffffffffffffffffffffffffffffffffffffffffffffffffffffffffffffff826200031b565b6200036686836200031b565b95508019841693508086168417925050509392505050565b6000819050919050565b6000819050919050565b6000620003b3620003ad620003a7846200037e565b62000388565b6200037e565b9050919050565b6000819050919050565b620003cf8362000392565b620003e7620003de82620003ba565b84845462000328565b825550505050565b600090565b620003fe620003ef565b6200040b818484620003c4565b505050565b5b81811015620004335762000427600082620003f4565b60018101905062000411565b5050565b601f82111562000482576200044c81620002f6565b62000457846200030b565b8101602085101562000467578190505b6200047f62000476856200030b565b83018262000410565b50505b505050565b600082821c905092915050565b6000620004a76000198460080262000487565b1980831691505092915050565b6000620004c2838362000494565b9150826002028217905092915050565b620004dd8262000287565b67ffffffffffffffff811115620004f957620004f86200009e565b5b620005058254620002c1565b6200051282828562000437565b600060209050601f8311600181146200054a576000841562000535578287015190505b620005418582620004b4565b865550620005b1565b601f1984166200055a86620002f6565b60005b8281101562000584578489015182556001820191506020850194506020810190506200055d565b86831015620005a45784890151620005a0601f89168262000494565b8355505b6001600288020188555050505b505050505050565b614d7280620005c96000396000f3fe608060405234801561001057600080fd5b506004361061012c5760003560e01c806395d89b41116100ad578063c0f45e7011610071578063c0f45e7014610351578063c72b517614610381578063c87b56dd1461039f578063ceb60654146103cf578063e985e9c5146103ff5761012c565b806395d89b41146102af5780639cc84957146102cd578063a1b4ab26146102e9578063a22cb46514610319578063b88d4fde146103355761012c565b806323b872dd116100f457806323b872dd146101e757806342842e0e146102035780634e3997661461021f5780636352211e1461024f57806370a082311461027f5761012c565b806301ffc9a71461013157806306fdde0314610161578063081812fc1461017f578063095ea7b3146101af57806314b8c21e146101cb575b600080fd5b61014b60048036038101906101469190612763565b61042f565b60405161015891906127ab565b60405180910390f35b610169610511565b6040516101769190612856565b60405180910390f35b610199600480360381019061019491906128ae565b6105a3565b6040516101a6919061291c565b60405180910390f35b6101c960048036038101906101c49190612963565b6105e9565b005b6101e560048036038101906101e09190612ad8565b610700565b005b61020160048036038101906101fc9190612baf565b61089b565b005b61021d60048036038101906102189190612baf565b6108fb565b005b610239600480360381019061023491906128ae565b61091b565b6040516102469190612856565b60405180910390f35b610269600480360381019061026491906128ae565b610a0a565b604051610276919061291c565b60405180910390f35b61029960048036038101906102949190612c02565b610a90565b6040516102a69190612c3e565b60405180910390f35b6102b7610b47565b6040516102c49190612856565b60405180910390f35b6102e760048036038101906102e29190612e3f565b610bd9565b005b61030360048036038101906102fe91906128ae565b610e83565b6040516103109190612856565b60405180910390f35b610333600480360381019061032e9190612eda565b610f46565b005b61034f600480360381019061034a9190612fbb565b610f5c565b005b61036b60048036038101906103669190612c02565b610fbe565b60405161037891906130fc565b60405180910390f35b610389611055565b60405161039691906132b5565b60405180910390f35b6103b960048036038101906103b491906128ae565b611367565b6040516103c69190612856565b60405180910390f35b6103e960048036038101906103e491906128ae565b6113ee565b6040516103f69190613362565b60405180910390f35b61041960048036038101906104149190613384565b6116f6565b60405161042691906127ab565b60405180910390f35b60007f80ac58cd000000000000000000000000000000000000000000000000000000007bffffffffffffffffffffffffffffffffffffffffffffffffffffffff1916827bffffffffffffffffffffffffffffffffffffffffffffffffffffffff191614806104fa57507f5b5e139f000000000000000000000000000000000000000000000000000000007bffffffffffffffffffffffffffffffffffffffffffffffffffffffff1916827bffffffffffffffffffffffffffffffffffffffffffffffffffffffff1916145b8061050a57506105098261178a565b5b9050919050565b606060008054610520906133f3565b80601f016020809104026020016040519081016040528092919081815260200182805461054c906133f3565b80156105995780601f1061056e57610100808354040283529160200191610599565b820191906000526020600020905b81548152906001019060200180831161057c57829003601f168201915b5050505050905090565b60006105ae826117f4565b6004600083815260200190815260200160002060009054906101000a900473ffffffffffffffffffffffffffffffffffffffff169050919050565b60006105f482610a0a565b90508073ffffffffffffffffffffffffffffffffffffffff168373ffffffffffffffffffffffffffffffffffffffff1603610664576040517f08c379a000000000000000000000000000000000000000000000000000000000815260040161065b90613496565b60405180910390fd5b8073ffffffffffffffffffffffffffffffffffffffff1661068361183f565b73ffffffffffffffffffffffffffffffffffffffff1614806106b257506106b1816106ac61183f565b6116f6565b5b6106f1576040517f08c379a00000000000000000000000000000000000000000000000000000000081526004016106e890613528565b60405180910390fd5b6106fb8383611847565b505050565b600060066000600a5481526020019081526020016000209050600085510361075d576040517f08c379a000000000000000000000000000000000000000000000000000000000815260040161075490613594565b60405180910390fd5b60008451036107a1576040517f08c379a000000000000000000000000000000000000000000000000000000000815260040161079890613600565b60405180910390fd5b60008351036107e5576040517f08c379a00000000000000000000000000000000000000000000000000000000081526004016107dc9061366c565b60405180910390fd5b6000825103610829576040517f08c379a0000000000000000000000000000000000000000000000000000000008152600401610820906136d8565b60405180910390fd5b600a5481600001819055508481600101908161084591906138a4565b508381600201908161085791906138a4565b508281600301908161086991906138a4565b508181600401908161087b91906138a4565b50600a600081548092919061088f906139a5565b91905055505050505050565b6108ac6108a661183f565b82611900565b6108eb576040517f08c379a00000000000000000000000000000000000000000000000000000000081526004016108e290613a5f565b60405180910390fd5b6108f6838383611995565b505050565b61091683838360405180602001604052806000815250610f5c565b505050565b606061092682611c8e565b610965576040517f08c379a000000000000000000000000000000000000000000000000000000000815260040161095c90613af1565b60405180910390fd5b6000600760008481526020019081526020016000209050600060066000600860008781526020019081526020016000205481526020019081526020016000209050600081600201826003018460000185600101866002018760030188600401896005018a6006018b6007018c6008016040516020016109ee9b9a99989796959493929190614013565b6040516020818303038152906040529050809350505050919050565b600080610a1683611ccf565b9050600073ffffffffffffffffffffffffffffffffffffffff168173ffffffffffffffffffffffffffffffffffffffff1603610a87576040517f08c379a0000000000000000000000000000000000000000000000000000000008152600401610a7e90614200565b60405180910390fd5b80915050919050565b60008073ffffffffffffffffffffffffffffffffffffffff168273ffffffffffffffffffffffffffffffffffffffff1603610b00576040517f08c379a0000000000000000000000000000000000000000000000000000000008152600401610af790614292565b60405180910390fd5b600360008373ffffffffffffffffffffffffffffffffffffffff1673ffffffffffffffffffffffffffffffffffffffff168152602001908152602001600020549050919050565b606060018054610b56906133f3565b80601f0160208091040260200160405190810160405280929190818152602001828054610b82906133f3565b8015610bcf5780601f10610ba457610100808354040283529160200191610bcf565b820191906000526020600020905b815481529060010190602001808311610bb257829003601f168201915b5050505050905090565b610be3600b611d0c565b60005b600960008373ffffffffffffffffffffffffffffffffffffffff1673ffffffffffffffffffffffffffffffffffffffff16815260200190815260200160002080549050811015610cf3578360086000600960008673ffffffffffffffffffffffffffffffffffffffff1673ffffffffffffffffffffffffffffffffffffffff1681526020019081526020016000208481548110610c8657610c856142b2565b5b906000526020600020015481526020019081526020016000205403610ce0576040517f08c379a0000000000000000000000000000000000000000000000000000000008152600401610cd79061432d565b60405180910390fd5b8080610ceb906139a5565b915050610be6565b508160076000610d03600b611d22565b81526020019081526020016000206000820151816000019081610d2691906138a4565b506020820151816001019081610d3c91906138a4565b506040820151816002019081610d5291906138a4565b506060820151816003019081610d6891906138a4565b506080820151816004019081610d7e91906138a4565b5060a0820151816005019081610d9491906138a4565b5060c0820151816006019081610daa91906138a4565b5060e0820151816007019081610dc091906138a4565b50610100820151816008019081610dd791906138a4565b509050508260086000610dea600b611d22565b815260200190815260200160002081905550600960008273ffffffffffffffffffffffffffffffffffffffff1673ffffffffffffffffffffffffffffffffffffffff168152602001908152602001600020610e45600b611d22565b9080600181540180825580915050600190039060005260206000200160009091909190915055610e7e81610e79600b611d22565b611d30565b505050565b6060610e8e82611c8e565b610ecd576040517f08c379a0000000000000000000000000000000000000000000000000000000008152600401610ec490613af1565b60405180910390fd5b600060066000600860008681526020019081526020016000205481526020019081526020016000209050600081600101610f0685611d4e565b8360010184600101610f178861091b565b604051602001610f2b959493929190614592565b60405160208183030381529060405290508092505050919050565b610f58610f5161183f565b8383611e1c565b5050565b610f6d610f6761183f565b83611900565b610fac576040517f08c379a0000000000000000000000000000000000000000000000000000000008152600401610fa390613a5f565b60405180910390fd5b610fb884848484611f88565b50505050565b6060600960008373ffffffffffffffffffffffffffffffffffffffff1673ffffffffffffffffffffffffffffffffffffffff16815260200190815260200160002080548060200260200160405190810160405280929190818152602001828054801561104957602002820191906000526020600020905b815481526020019060010190808311611035575b50505050509050919050565b60606000600a5467ffffffffffffffff811115611075576110746129ad565b5b6040519080825280602002602001820160405280156110ae57816020015b61109b6126c8565b8152602001906001900390816110935790505b50905060005b600a5481101561135f57600660008281526020019081526020016000206040518060a0016040529081600082015481526020016001820180546110f6906133f3565b80601f0160208091040260200160405190810160405280929190818152602001828054611122906133f3565b801561116f5780601f106111445761010080835404028352916020019161116f565b820191906000526020600020905b81548152906001019060200180831161115257829003601f168201915b50505050508152602001600282018054611188906133f3565b80601f01602080910402602001604051908101604052809291908181526020018280546111b4906133f3565b80156112015780601f106111d657610100808354040283529160200191611201565b820191906000526020600020905b8154815290600101906020018083116111e457829003601f168201915b5050505050815260200160038201805461121a906133f3565b80601f0160208091040260200160405190810160405280929190818152602001828054611246906133f3565b80156112935780601f1061126857610100808354040283529160200191611293565b820191906000526020600020905b81548152906001019060200180831161127657829003601f168201915b505050505081526020016004820180546112ac906133f3565b80601f01602080910402602001604051908101604052809291908181526020018280546112d8906133f3565b80156113255780601f106112fa57610100808354040283529160200191611325565b820191906000526020600020905b81548152906001019060200180831161130857829003601f168201915b505050505081525050828281518110611341576113406142b2565b5b60200260200101819052508080611357906139a5565b9150506110b4565b508091505090565b606061137282611c8e565b6113b1576040517f08c379a00000000000000000000000000000000000000000000000000000000081526004016113a8906146bd565b60405180910390fd5b60006113c46113bf84610e83565b611fe4565b9050806040516020016113d79190614729565b604051602081830303815290604052915050919050565b6113f66126c8565b6000600a540361143b576040517f08c379a000000000000000000000000000000000000000000000000000000000815260040161143290614797565b60405180910390fd5b600a54821061147f576040517f08c379a000000000000000000000000000000000000000000000000000000000815260040161147690614829565b60405180910390fd5b600660008381526020019081526020016000206040518060a0016040529081600082015481526020016001820180546114b7906133f3565b80601f01602080910402602001604051908101604052809291908181526020018280546114e3906133f3565b80156115305780601f1061150557610100808354040283529160200191611530565b820191906000526020600020905b81548152906001019060200180831161151357829003601f168201915b50505050508152602001600282018054611549906133f3565b80601f0160208091040260200160405190810160405280929190818152602001828054611575906133f3565b80156115c25780601f10611597576101008083540402835291602001916115c2565b820191906000526020600020905b8154815290600101906020018083116115a557829003601f168201915b505050505081526020016003820180546115db906133f3565b80601f0160208091040260200160405190810160405280929190818152602001828054611607906133f3565b80156116545780601f1061162957610100808354040283529160200191611654565b820191906000526020600020905b81548152906001019060200180831161163757829003601f168201915b5050505050815260200160048201805461166d906133f3565b80601f0160208091040260200160405190810160405280929190818152602001828054611699906133f3565b80156116e65780601f106116bb576101008083540402835291602001916116e6565b820191906000526020600020905b8154815290600101906020018083116116c957829003601f168201915b5050505050815250509050919050565b6000600560008473ffffffffffffffffffffffffffffffffffffffff1673ffffffffffffffffffffffffffffffffffffffff16815260200190815260200160002060008373ffffffffffffffffffffffffffffffffffffffff1673ffffffffffffffffffffffffffffffffffffffff16815260200190815260200160002060009054906101000a900460ff16905092915050565b60007f01ffc9a7000000000000000000000000000000000000000000000000000000007bffffffffffffffffffffffffffffffffffffffffffffffffffffffff1916827bffffffffffffffffffffffffffffffffffffffffffffffffffffffff1916149050919050565b6117fd81611c8e565b61183c576040517f08c379a000000000000000000000000000000000000000000000000000000000815260040161183390614200565b60405180910390fd5b50565b600033905090565b816004600083815260200190815260200160002060006101000a81548173ffffffffffffffffffffffffffffffffffffffff021916908373ffffffffffffffffffffffffffffffffffffffff160217905550808273ffffffffffffffffffffffffffffffffffffffff166118ba83610a0a565b73ffffffffffffffffffffffffffffffffffffffff167f8c5be1e5ebec7d5bd14f71427d1e84f3dd0314c0f7b2291e5b200ac8c7c3b92560405160405180910390a45050565b60008061190c83610a0a565b90508073ffffffffffffffffffffffffffffffffffffffff168473ffffffffffffffffffffffffffffffffffffffff16148061194e575061194d81856116f6565b5b8061198c57508373ffffffffffffffffffffffffffffffffffffffff16611974846105a3565b73ffffffffffffffffffffffffffffffffffffffff16145b91505092915050565b8273ffffffffffffffffffffffffffffffffffffffff166119b582610a0a565b73ffffffffffffffffffffffffffffffffffffffff1614611a0b576040517f08c379a0000000000000000000000000000000000000000000000000000000008152600401611a02906148bb565b60405180910390fd5b600073ffffffffffffffffffffffffffffffffffffffff168273ffffffffffffffffffffffffffffffffffffffff1603611a7a576040517f08c379a0000000000000000000000000000000000000000000000000000000008152600401611a719061494d565b60405180910390fd5b611a878383836001612147565b8273ffffffffffffffffffffffffffffffffffffffff16611aa782610a0a565b73ffffffffffffffffffffffffffffffffffffffff1614611afd576040517f08c379a0000000000000000000000000000000000000000000000000000000008152600401611af4906148bb565b60405180910390fd5b6004600082815260200190815260200160002060006101000a81549073ffffffffffffffffffffffffffffffffffffffff02191690556001600360008573ffffffffffffffffffffffffffffffffffffffff1673ffffffffffffffffffffffffffffffffffffffff168152602001908152602001600020600082825403925050819055506001600360008473ffffffffffffffffffffffffffffffffffffffff1673ffffffffffffffffffffffffffffffffffffffff16815260200190815260200160002060008282540192505081905550816002600083815260200190815260200160002060006101000a81548173ffffffffffffffffffffffffffffffffffffffff021916908373ffffffffffffffffffffffffffffffffffffffff160217905550808273ffffffffffffffffffffffffffffffffffffffff168473ffffffffffffffffffffffffffffffffffffffff167fddf252ad1be2c89b69c2b068fc378daa952ba7f163c4a11628f55a4df523b3ef60405160405180910390a4611c89838383600161214d565b505050565b60008073ffffffffffffffffffffffffffffffffffffffff16611cb083611ccf565b73ffffffffffffffffffffffffffffffffffffffff1614159050919050565b60006002600083815260200190815260200160002060009054906101000a900473ffffffffffffffffffffffffffffffffffffffff169050919050565b6001816000016000828254019250508190555050565b600081600001549050919050565b611d4a828260405180602001604052806000815250612153565b5050565b606060006001611d5d846121ae565b01905060008167ffffffffffffffff811115611d7c57611d7b6129ad565b5b6040519080825280601f01601f191660200182016040528015611dae5781602001600182028036833780820191505090505b509050600082602001820190505b600115611e11578080600190039150507f3031323334353637383961626364656600000000000000000000000000000000600a86061a8153600a8581611e0557611e0461496d565b5b04945060008503611dbc575b819350505050919050565b8173ffffffffffffffffffffffffffffffffffffffff168373ffffffffffffffffffffffffffffffffffffffff1603611e8a576040517f08c379a0000000000000000000000000000000000000000000000000000000008152600401611e81906149e8565b60405180910390fd5b80600560008573ffffffffffffffffffffffffffffffffffffffff1673ffffffffffffffffffffffffffffffffffffffff16815260200190815260200160002060008473ffffffffffffffffffffffffffffffffffffffff1673ffffffffffffffffffffffffffffffffffffffff16815260200190815260200160002060006101000a81548160ff0219169083151502179055508173ffffffffffffffffffffffffffffffffffffffff168373ffffffffffffffffffffffffffffffffffffffff167f17307eab39ab6107e8899845ad3d59bd9653f200f220920489ca2b5937696c3183604051611f7b91906127ab565b60405180910390a3505050565b611f93848484611995565b611f9f84848484612301565b611fde576040517f08c379a0000000000000000000000000000000000000000000000000000000008152600401611fd590614a7a565b60405180910390fd5b50505050565b6060600082510361200657604051806020016040528060008152509050612142565b6000604051806060016040528060408152602001614cfd60409139905060006003600285516120359190614a9a565b61203f9190614ace565b600461204b9190614aff565b67ffffffffffffffff811115612064576120636129ad565b5b6040519080825280601f01601f1916602001820160405280156120965781602001600182028036833780820191505090505b509050600182016020820185865187015b80821015612102576003820191508151603f8160121c168501518453600184019350603f81600c1c168501518453600184019350603f8160061c168501518453600184019350603f81168501518453600184019350506120a7565b505060038651066001811461211e576002811461213157612139565b603d6001830353603d6002830353612139565b603d60018303535b50505080925050505b919050565b50505050565b50505050565b61215d8383612488565b61216a6000848484612301565b6121a9576040517f08c379a00000000000000000000000000000000000000000000000000000000081526004016121a090614a7a565b60405180910390fd5b505050565b600080600090507a184f03e93ff9f4daa797ed6e38ed64bf6a1f010000000000000000831061220c577a184f03e93ff9f4daa797ed6e38ed64bf6a1f01000000000000000083816122025761220161496d565b5b0492506040810190505b6d04ee2d6d415b85acef81000000008310612249576d04ee2d6d415b85acef8100000000838161223f5761223e61496d565b5b0492506020810190505b662386f26fc10000831061227857662386f26fc10000838161226e5761226d61496d565b5b0492506010810190505b6305f5e10083106122a1576305f5e10083816122975761229661496d565b5b0492506008810190505b61271083106122c65761271083816122bc576122bb61496d565b5b0492506004810190505b606483106122e957606483816122df576122de61496d565b5b0492506002810190505b600a83106122f8576001810190505b80915050919050565b60006123228473ffffffffffffffffffffffffffffffffffffffff166126a5565b1561247b578373ffffffffffffffffffffffffffffffffffffffff1663150b7a0261234b61183f565b8786866040518563ffffffff1660e01b815260040161236d9493929190614b96565b6020604051808303816000875af19250505080156123a957506040513d601f19601f820116820180604052508101906123a69190614bf7565b60015b61242b573d80600081146123d9576040519150601f19603f3d011682016040523d82523d6000602084013e6123de565b606091505b506000815103612423576040517f08c379a000000000000000000000000000000000000000000000000000000000815260040161241a90614a7a565b60405180910390fd5b805181602001fd5b63150b7a0260e01b7bffffffffffffffffffffffffffffffffffffffffffffffffffffffff1916817bffffffffffffffffffffffffffffffffffffffffffffffffffffffff191614915050612480565b600190505b949350505050565b600073ffffffffffffffffffffffffffffffffffffffff168273ffffffffffffffffffffffffffffffffffffffff16036124f7576040517f08c379a00000000000000000000000000000000000000000000000000000000081526004016124ee90614c70565b60405180910390fd5b61250081611c8e565b15612540576040517f08c379a000000000000000000000000000000000000000000000000000000000815260040161253790614cdc565b60405180910390fd5b61254e600083836001612147565b61255781611c8e565b15612597576040517f08c379a000000000000000000000000000000000000000000000000000000000815260040161258e90614cdc565b60405180910390fd5b6001600360008473ffffffffffffffffffffffffffffffffffffffff1673ffffffffffffffffffffffffffffffffffffffff16815260200190815260200160002060008282540192505081905550816002600083815260200190815260200160002060006101000a81548173ffffffffffffffffffffffffffffffffffffffff021916908373ffffffffffffffffffffffffffffffffffffffff160217905550808273ffffffffffffffffffffffffffffffffffffffff16600073ffffffffffffffffffffffffffffffffffffffff167fddf252ad1be2c89b69c2b068fc378daa952ba7f163c4a11628f55a4df523b3ef60405160405180910390a46126a160008383600161214d565b5050565b6000808273ffffffffffffffffffffffffffffffffffffffff163b119050919050565b6040518060a0016040528060008152602001606081526020016060815260200160608152602001606081525090565b6000604051905090565b600080fd5b600080fd5b60007fffffffff0000000000000000000000000000000000000000000000000000000082169050919050565b6127408161270b565b811461274b57600080fd5b50565b60008135905061275d81612737565b92915050565b60006020828403121561277957612778612701565b5b60006127878482850161274e565b91505092915050565b60008115159050919050565b6127a581612790565b82525050565b60006020820190506127c0600083018461279c565b92915050565b600081519050919050565b600082825260208201905092915050565b60005b838110156128005780820151818401526020810190506127e5565b60008484015250505050565b6000601f19601f8301169050919050565b6000612828826127c6565b61283281856127d1565b93506128428185602086016127e2565b61284b8161280c565b840191505092915050565b60006020820190508181036000830152612870818461281d565b905092915050565b6000819050919050565b61288b81612878565b811461289657600080fd5b50565b6000813590506128a881612882565b92915050565b6000602082840312156128c4576128c3612701565b5b60006128d284828501612899565b91505092915050565b600073ffffffffffffffffffffffffffffffffffffffff82169050919050565b6000612906826128db565b9050919050565b612916816128fb565b82525050565b6000602082019050612931600083018461290d565b92915050565b612940816128fb565b811461294b57600080fd5b50565b60008135905061295d81612937565b92915050565b6000806040838503121561297a57612979612701565b5b60006129888582860161294e565b925050602061299985828601612899565b9150509250929050565b600080fd5b600080fd5b7f4e487b7100000000000000000000000000000000000000000000000000000000600052604160045260246000fd5b6129e58261280c565b810181811067ffffffffffffffff82111715612a0457612a036129ad565b5b80604052505050565b6000612a176126f7565b9050612a2382826129dc565b919050565b600067ffffffffffffffff821115612a4357612a426129ad565b5b612a4c8261280c565b9050602081019050919050565b82818337600083830152505050565b6000612a7b612a7684612a28565b612a0d565b905082815260208101848484011115612a9757612a966129a8565b5b612aa2848285612a59565b509392505050565b600082601f830112612abf57612abe6129a3565b5b8135612acf848260208601612a68565b91505092915050565b60008060008060808587031215612af257612af1612701565b5b600085013567ffffffffffffffff811115612b1057612b0f612706565b5b612b1c87828801612aaa565b945050602085013567ffffffffffffffff811115612b3d57612b3c612706565b5b612b4987828801612aaa565b935050604085013567ffffffffffffffff811115612b6a57612b69612706565b5b612b7687828801612aaa565b925050606085013567ffffffffffffffff811115612b9757612b96612706565b5b612ba387828801612aaa565b91505092959194509250565b600080600060608486031215612bc857612bc7612701565b5b6000612bd68682870161294e565b9350506020612be78682870161294e565b9250506040612bf886828701612899565b9150509250925092565b600060208284031215612c1857612c17612701565b5b6000612c268482850161294e565b91505092915050565b612c3881612878565b82525050565b6000602082019050612c536000830184612c2f565b92915050565b600080fd5b600080fd5b60006101208284031215612c7a57612c79612c59565b5b612c85610120612a0d565b9050600082013567ffffffffffffffff811115612ca557612ca4612c5e565b5b612cb184828501612aaa565b600083015250602082013567ffffffffffffffff811115612cd557612cd4612c5e565b5b612ce184828501612aaa565b602083015250604082013567ffffffffffffffff811115612d0557612d04612c5e565b5b612d1184828501612aaa565b604083015250606082013567ffffffffffffffff811115612d3557612d34612c5e565b5b612d4184828501612aaa565b606083015250608082013567ffffffffffffffff811115612d6557612d64612c5e565b5b612d7184828501612aaa565b60808301525060a082013567ffffffffffffffff811115612d9557612d94612c5e565b5b612da184828501612aaa565b60a08301525060c082013567ffffffffffffffff811115612dc557612dc4612c5e565b5b612dd184828501612aaa565b60c08301525060e082013567ffffffffffffffff811115612df557612df4612c5e565b5b612e0184828501612aaa565b60e08301525061010082013567ffffffffffffffff811115612e2657612e25612c5e565b5b612e3284828501612aaa565b6101008301525092915050565b600080600060608486031215612e5857612e57612701565b5b6000612e6686828701612899565b935050602084013567ffffffffffffffff811115612e8757612e86612706565b5b612e9386828701612c63565b9250506040612ea48682870161294e565b9150509250925092565b612eb781612790565b8114612ec257600080fd5b50565b600081359050612ed481612eae565b92915050565b60008060408385031215612ef157612ef0612701565b5b6000612eff8582860161294e565b9250506020612f1085828601612ec5565b9150509250929050565b600067ffffffffffffffff821115612f3557612f346129ad565b5b612f3e8261280c565b9050602081019050919050565b6000612f5e612f5984612f1a565b612a0d565b905082815260208101848484011115612f7a57612f796129a8565b5b612f85848285612a59565b509392505050565b600082601f830112612fa257612fa16129a3565b5b8135612fb2848260208601612f4b565b91505092915050565b60008060008060808587031215612fd557612fd4612701565b5b6000612fe38782880161294e565b9450506020612ff48782880161294e565b935050604061300587828801612899565b925050606085013567ffffffffffffffff81111561302657613025612706565b5b61303287828801612f8d565b91505092959194509250565b600081519050919050565b600082825260208201905092915050565b6000819050602082019050919050565b61307381612878565b82525050565b6000613085838361306a565b60208301905092915050565b6000602082019050919050565b60006130a98261303e565b6130b38185613049565b93506130be8361305a565b8060005b838110156130ef5781516130d68882613079565b97506130e183613091565b9250506001810190506130c2565b5085935050505092915050565b60006020820190508181036000830152613116818461309e565b905092915050565b600081519050919050565b600082825260208201905092915050565b6000819050602082019050919050565b600082825260208201905092915050565b6000613166826127c6565b613170818561314a565b93506131808185602086016127e2565b6131898161280c565b840191505092915050565b600060a0830160008301516131ac600086018261306a565b50602083015184820360208601526131c4828261315b565b915050604083015184820360408601526131de828261315b565b915050606083015184820360608601526131f8828261315b565b91505060808301518482036080860152613212828261315b565b9150508091505092915050565b600061322b8383613194565b905092915050565b6000602082019050919050565b600061324b8261311e565b6132558185613129565b9350836020820285016132678561313a565b8060005b858110156132a35784840389528151613284858261321f565b945061328f83613233565b925060208a0199505060018101905061326b565b50829750879550505050505092915050565b600060208201905081810360008301526132cf8184613240565b905092915050565b600060a0830160008301516132ef600086018261306a565b5060208301518482036020860152613307828261315b565b91505060408301518482036040860152613321828261315b565b9150506060830151848203606086015261333b828261315b565b91505060808301518482036080860152613355828261315b565b9150508091505092915050565b6000602082019050818103600083015261337c81846132d7565b905092915050565b6000806040838503121561339b5761339a612701565b5b60006133a98582860161294e565b92505060206133ba8582860161294e565b9150509250929050565b7f4e487b7100000000000000000000000000000000000000000000000000000000600052602260045260246000fd5b6000600282049050600182168061340b57607f821691505b60208210810361341e5761341d6133c4565b5b50919050565b7f4552433732313a20617070726f76616c20746f2063757272656e74206f776e6560008201527f7200000000000000000000000000000000000000000000000000000000000000602082015250565b60006134806021836127d1565b915061348b82613424565b604082019050919050565b600060208201905081810360008301526134af81613473565b9050919050565b7f4552433732313a20617070726f76652063616c6c6572206973206e6f7420746f60008201527f6b656e206f776e6572206f7220617070726f76656420666f7220616c6c000000602082015250565b6000613512603d836127d1565b915061351d826134b6565b604082019050919050565b6000602082019050818103600083015261354181613505565b9050919050565b7f6e616d65206d757374206e6f7420626520656d70747900000000000000000000600082015250565b600061357e6016836127d1565b915061358982613548565b602082019050919050565b600060208201905081810360008301526135ad81613571565b9050919050565b7f68206d757374206e6f7420626520656d70747900000000000000000000000000600082015250565b60006135ea6013836127d1565b91506135f5826135b4565b602082019050919050565b60006020820190508181036000830152613619816135dd565b9050919050565b7f6b70507562206d757374206e6f7420626520656d707479000000000000000000600082015250565b60006136566017836127d1565b915061366182613620565b602082019050919050565b6000602082019050818103600083015261368581613649565b9050919050565b7f7369676e6174757265206d757374206e6f7420626520656d7074790000000000600082015250565b60006136c2601b836127d1565b91506136cd8261368c565b602082019050919050565b600060208201905081810360008301526136f1816136b5565b9050919050565b60008190508160005260206000209050919050565b60006020601f8301049050919050565b600082821b905092915050565b60006008830261375a7fffffffffffffffffffffffffffffffffffffffffffffffffffffffffffffffff8261371d565b613764868361371d565b95508019841693508086168417925050509392505050565b6000819050919050565b60006137a161379c61379784612878565b61377c565b612878565b9050919050565b6000819050919050565b6137bb83613786565b6137cf6137c7826137a8565b84845461372a565b825550505050565b600090565b6137e46137d7565b6137ef8184846137b2565b505050565b5b81811015613813576138086000826137dc565b6001810190506137f5565b5050565b601f82111561385857613829816136f8565b6138328461370d565b81016020851015613841578190505b61385561384d8561370d565b8301826137f4565b50505b505050565b600082821c905092915050565b600061387b6000198460080261385d565b1980831691505092915050565b6000613894838361386a565b9150826002028217905092915050565b6138ad826127c6565b67ffffffffffffffff8111156138c6576138c56129ad565b5b6138d082546133f3565b6138db828285613817565b600060209050601f83116001811461390e57600084156138fc578287015190505b6139068582613888565b86555061396e565b601f19841661391c866136f8565b60005b828110156139445784890151825560018201915060208501945060208101905061391f565b86831015613961578489015161395d601f89168261386a565b8355505b6001600288020188555050505b505050505050565b7f4e487b7100000000000000000000000000000000000000000000000000000000600052601160045260246000fd5b60006139b082612878565b91507fffffffffffffffffffffffffffffffffffffffffffffffffffffffffffffffff82036139e2576139e1613976565b5b600182019050919050565b7f4552433732313a2063616c6c6572206973206e6f7420746f6b656e206f776e6560008201527f72206f7220617070726f76656400000000000000000000000000000000000000602082015250565b6000613a49602d836127d1565b9150613a54826139ed565b604082019050919050565b60006020820190508181036000830152613a7881613a3c565b9050919050565b7f4552433732314d657461646174613a204d65746164617461207175657279206660008201527f6f72206e6f6e6578697374656e7420746f6b656e000000000000000000000000602082015250565b6000613adb6034836127d1565b9150613ae682613a7f565b604082019050919050565b60006020820190508181036000830152613b0a81613ace565b9050919050565b600081905092915050565b7f7b00000000000000000000000000000000000000000000000000000000000000600082015250565b6000613b52600183613b11565b9150613b5d82613b1c565b600182019050919050565b7f2268223a20220000000000000000000000000000000000000000000000000000600082015250565b6000613b9e600683613b11565b9150613ba982613b68565b600682019050919050565b60008154613bc1816133f3565b613bcb8186613b11565b94506001821660008114613be65760018114613bfb57613c2e565b60ff1983168652811515820286019350613c2e565b613c04856136f8565b60005b83811015613c2657815481890152600182019150602081019050613c07565b838801955050505b50505092915050565b7f222c000000000000000000000000000000000000000000000000000000000000600082015250565b6000613c6d600283613b11565b9150613c7882613c37565b600282019050919050565b7f226b70507562223a202200000000000000000000000000000000000000000000600082015250565b6000613cb9600a83613b11565b9150613cc482613c83565b600a82019050919050565b7f2276223a20220000000000000000000000000000000000000000000000000000600082015250565b6000613d05600683613b11565b9150613d1082613ccf565b600682019050919050565b7f2264223a20220000000000000000000000000000000000000000000000000000600082015250565b6000613d51600683613b11565b9150613d5c82613d1b565b600682019050919050565b7f2263223a20220000000000000000000000000000000000000000000000000000600082015250565b6000613d9d600683613b11565b9150613da882613d67565b600682019050919050565b7f2261223a20220000000000000000000000000000000000000000000000000000600082015250565b6000613de9600683613b11565b9150613df482613db3565b600682019050919050565b7f227a536967223a20220000000000000000000000000000000000000000000000600082015250565b6000613e35600983613b11565b9150613e4082613dff565b600982019050919050565b7f227a76223a202200000000000000000000000000000000000000000000000000600082015250565b6000613e81600783613b11565b9150613e8c82613e4b565b600782019050919050565b7f226363223a202200000000000000000000000000000000000000000000000000600082015250565b6000613ecd600783613b11565b9150613ed882613e97565b600782019050919050565b7f226d223a20220000000000000000000000000000000000000000000000000000600082015250565b6000613f19600683613b11565b9150613f2482613ee3565b600682019050919050565b7f227a72223a202200000000000000000000000000000000000000000000000000600082015250565b6000613f65600783613b11565b9150613f7082613f2f565b600782019050919050565b7f2200000000000000000000000000000000000000000000000000000000000000600082015250565b6000613fb1600183613b11565b9150613fbc82613f7b565b600182019050919050565b7f7d00000000000000000000000000000000000000000000000000000000000000600082015250565b6000613ffd600183613b11565b915061400882613fc7565b600182019050919050565b600061401e82613b45565b915061402982613b91565b9150614035828e613bb4565b915061404082613c60565b915061404b82613cac565b9150614057828d613bb4565b915061406282613c60565b915061406d82613cf8565b9150614079828c613bb4565b915061408482613c60565b915061408f82613d44565b915061409b828b613bb4565b91506140a682613c60565b91506140b182613d90565b91506140bd828a613bb4565b91506140c882613c60565b91506140d382613ddc565b91506140df8289613bb4565b91506140ea82613c60565b91506140f582613e28565b91506141018288613bb4565b915061410c82613c60565b915061411782613e74565b91506141238287613bb4565b915061412e82613c60565b915061413982613ec0565b91506141458286613bb4565b915061415082613c60565b915061415b82613f0c565b91506141678285613bb4565b915061417282613c60565b915061417d82613f58565b91506141898284613bb4565b915061419482613fa4565b915061419f82613ff0565b91508190509c9b505050505050505050505050565b7f4552433732313a20696e76616c696420746f6b656e2049440000000000000000600082015250565b60006141ea6018836127d1565b91506141f5826141b4565b602082019050919050565b60006020820190508181036000830152614219816141dd565b9050919050565b7f4552433732313a2061646472657373207a65726f206973206e6f74206120766160008201527f6c6964206f776e65720000000000000000000000000000000000000000000000602082015250565b600061427c6029836127d1565b915061428782614220565b604082019050919050565b600060208201905081810360008301526142ab8161426f565b9050919050565b7f4e487b7100000000000000000000000000000000000000000000000000000000600052603260045260246000fd5b7f616c726561647920686f6c646572000000000000000000000000000000000000600082015250565b6000614317600e836127d1565b9150614322826142e1565b602082019050919050565b600060208201905081810360008301526143468161430a565b9050919050565b7f226e616d65223a20220000000000000000000000000000000000000000000000600082015250565b6000614383600983613b11565b915061438e8261434d565b600982019050919050565b7f2023000000000000000000000000000000000000000000000000000000000000600082015250565b60006143cf600283613b11565b91506143da82614399565b600282019050919050565b60006143f0826127c6565b6143fa8185613b11565b935061440a8185602086016127e2565b80840191505092915050565b7f226465736372697074696f6e223a20225468652070726f6f66206f662062656c60008201527f6f6e67696e6720746f2000000000000000000000000000000000000000000000602082015250565b6000614472602a83613b11565b915061447d82614416565b602a82019050919050565b7f2067726f75702e222c0000000000000000000000000000000000000000000000600082015250565b60006144be600983613b11565b91506144c982614488565b600982019050919050565b7f22696d616765223a202268747470733a2f2f706c616365686f6c642e6a702f3560008201527f39336537302f6666666666662f353030783530302e706e673f746578743d0000602082015250565b6000614530603e83613b11565b915061453b826144d4565b603e82019050919050565b7f2270726f6f66223a000000000000000000000000000000000000000000000000600082015250565b600061457c600883613b11565b915061458782614546565b600882019050919050565b600061459d82613b45565b91506145a882614376565b91506145b48288613bb4565b91506145bf826143c2565b91506145cb82876143e5565b91506145d682613c60565b91506145e182614465565b91506145ed8286613bb4565b91506145f8826144b1565b915061460382614523565b915061460f8285613bb4565b915061461a82613c60565b91506146258261456f565b915061463182846143e5565b915061463c82613ff0565b91508190509695505050505050565b7f4552433732314d657461646174613a2055524920717565727920666f72206e6f60008201527f6e6578697374656e7420746f6b656e0000000000000000000000000000000000602082015250565b60006146a7602f836127d1565b91506146b28261464b565b604082019050919050565b600060208201905081810360008301526146d68161469a565b9050919050565b7f646174613a6170706c69636174696f6e2f6a736f6e3b6261736536342c000000600082015250565b6000614713601d83613b11565b915061471e826146dd565b601d82019050919050565b600061473482614706565b915061474082846143e5565b915081905092915050565b7f47726f757020646f6573206e6f74206578697374000000000000000000000000600082015250565b60006147816014836127d1565b915061478c8261474b565b602082019050919050565b600060208201905081810360008301526147b081614774565b9050919050565b7f47726f757020646f6573206e6f74206578697374206173736f6369617465642060008201527f7769746820696400000000000000000000000000000000000000000000000000602082015250565b60006148136027836127d1565b915061481e826147b7565b604082019050919050565b6000602082019050818103600083015261484281614806565b9050919050565b7f4552433732313a207472616e736665722066726f6d20696e636f72726563742060008201527f6f776e6572000000000000000000000000000000000000000000000000000000602082015250565b60006148a56025836127d1565b91506148b082614849565b604082019050919050565b600060208201905081810360008301526148d481614898565b9050919050565b7f4552433732313a207472616e7366657220746f20746865207a65726f2061646460008201527f7265737300000000000000000000000000000000000000000000000000000000602082015250565b60006149376024836127d1565b9150614942826148db565b604082019050919050565b600060208201905081810360008301526149668161492a565b9050919050565b7f4e487b7100000000000000000000000000000000000000000000000000000000600052601260045260246000fd5b7f4552433732313a20617070726f766520746f2063616c6c657200000000000000600082015250565b60006149d26019836127d1565b91506149dd8261499c565b602082019050919050565b60006020820190508181036000830152614a01816149c5565b9050919050565b7f4552433732313a207472616e7366657220746f206e6f6e20455243373231526560008201527f63656976657220696d706c656d656e7465720000000000000000000000000000602082015250565b6000614a646032836127d1565b9150614a6f82614a08565b604082019050919050565b60006020820190508181036000830152614a9381614a57565b9050919050565b6000614aa582612878565b9150614ab083612878565b9250828201905080821115614ac857614ac7613976565b5b92915050565b6000614ad982612878565b9150614ae483612878565b925082614af457614af361496d565b5b828204905092915050565b6000614b0a82612878565b9150614b1583612878565b9250828202614b2381612878565b91508282048414831517614b3a57614b39613976565b5b5092915050565b600081519050919050565b600082825260208201905092915050565b6000614b6882614b41565b614b728185614b4c565b9350614b828185602086016127e2565b614b8b8161280c565b840191505092915050565b6000608082019050614bab600083018761290d565b614bb8602083018661290d565b614bc56040830185612c2f565b8181036060830152614bd78184614b5d565b905095945050505050565b600081519050614bf181612737565b92915050565b600060208284031215614c0d57614c0c612701565b5b6000614c1b84828501614be2565b91505092915050565b7f4552433732313a206d696e7420746f20746865207a65726f2061646472657373600082015250565b6000614c5a6020836127d1565b9150614c6582614c24565b602082019050919050565b60006020820190508181036000830152614c8981614c4d565b9050919050565b7f4552433732313a20746f6b656e20616c7265616479206d696e74656400000000600082015250565b6000614cc6601c836127d1565b9150614cd182614c90565b602082019050919050565b60006020820190508181036000830152614cf581614cb9565b905091905056fe4142434445464748494a4b4c4d4e4f505152535455565758595a6162636465666768696a6b6c6d6e6f707172737475767778797a303132333435363738392b2fa2646970667358221220e8582e8aa11285bd1b95cf4490366f8852b1a9a9376cde73ebef966ca7c121cd64736f6c63430008120033",
  "linkReferences": {},
  "deployedLinkReferences": {}
}